{
  "_format": "hh-sol-artifact-1",
  "contractName": "PanopticMath",
  "sourceName": "contracts/libraries/PanopticMath.sol",
  "abi": [
    {
      "inputs": [],
      "name": "DECIMALS",
      "outputs": [
        {
          "internalType": "uint16",
          "name": "",
          "type": "uint16"
        }
      ],
      "stateMutability": "view",
      "type": "function"
    },
    {
      "inputs": [
        {
          "internalType": "int256",
          "name": "x",
          "type": "int256"
        }
      ],
      "name": "abs",
      "outputs": [
        {
          "internalType": "int256",
          "name": "",
          "type": "int256"
        }
      ],
      "stateMutability": "pure",
      "type": "function"
    },
    {
      "inputs": [
        {
          "internalType": "int24",
          "name": "strike",
          "type": "int24"
        },
        {
          "internalType": "int24",
          "name": "width",
          "type": "int24"
        },
        {
          "internalType": "int24",
          "name": "tickSpacing",
          "type": "int24"
        }
      ],
      "name": "asTicks",
      "outputs": [
        {
          "internalType": "int24",
          "name": "tickLower",
          "type": "int24"
        },
        {
          "internalType": "int24",
          "name": "tickUpper",
          "type": "int24"
        }
      ],
      "stateMutability": "pure",
      "type": "function"
    },
    {
      "inputs": [
        {
          "internalType": "contract IUniswapV3Pool",
          "name": "pool",
          "type": "IUniswapV3Pool"
        },
        {
          "internalType": "int24",
          "name": "tickLower",
          "type": "int24"
        },
        {
          "internalType": "int24",
          "name": "tickUpper",
          "type": "int24"
        },
        {
          "internalType": "uint128",
          "name": "legLiquidity",
          "type": "uint128"
        }
      ],
      "name": "calculateBaseFees",
      "outputs": [
        {
          "internalType": "uint128",
          "name": "feesToken0",
          "type": "uint128"
        },
        {
          "internalType": "uint128",
          "name": "feesToken1",
          "type": "uint128"
        }
      ],
      "stateMutability": "view",
      "type": "function"
    },
    {
      "inputs": [
        {
          "internalType": "contract IUniswapV3Pool",
          "name": "pool",
          "type": "IUniswapV3Pool"
        },
        {
          "internalType": "int24",
          "name": "tickLower",
          "type": "int24"
        },
        {
          "internalType": "int24",
          "name": "tickUpper",
          "type": "int24"
        }
      ],
      "name": "calculateFeeGrowthInside",
      "outputs": [
        {
          "internalType": "uint256",
          "name": "feeGrowthInside0X128",
          "type": "uint256"
        },
        {
          "internalType": "uint256",
          "name": "feeGrowthInside1X128",
          "type": "uint256"
        }
      ],
      "stateMutability": "view",
      "type": "function"
    },
    {
      "inputs": [
        {
          "internalType": "contract IUniswapV3Pool",
          "name": "pool",
          "type": "IUniswapV3Pool"
        },
        {
          "internalType": "uint256",
          "name": "tokenId",
          "type": "uint256"
        },
        {
          "internalType": "uint8",
          "name": "index",
          "type": "uint8"
        },
        {
          "components": [
            {
              "internalType": "uint128",
              "name": "feesBase0",
              "type": "uint128"
            },
            {
              "internalType": "uint128",
              "name": "feesBase1",
              "type": "uint128"
            },
            {
              "internalType": "uint128",
              "name": "baseLiquidity",
              "type": "uint128"
            }
          ],
          "internalType": "struct PanopticBase.Option",
          "name": "op",
          "type": "tuple"
        },
        {
          "internalType": "uint128",
          "name": "numberOfContracts",
          "type": "uint128"
        }
      ],
      "name": "calculatePositionFees",
      "outputs": [
        {
          "internalType": "int128",
          "name": "premium0",
          "type": "int128"
        },
        {
          "internalType": "int128",
          "name": "premium1",
          "type": "int128"
        }
      ],
      "stateMutability": "view",
      "type": "function"
    },
    {
      "inputs": [
        {
          "internalType": "contract IUniswapV3Pool",
          "name": "pool",
          "type": "IUniswapV3Pool"
        },
        {
          "components": [
            {
              "internalType": "uint128",
              "name": "feesBase0",
              "type": "uint128"
            },
            {
              "internalType": "uint128",
              "name": "feesBase1",
              "type": "uint128"
            },
            {
              "internalType": "uint128",
              "name": "baseLiquidity",
              "type": "uint128"
            }
          ],
          "internalType": "struct PanopticBase.Option[]",
          "name": "userOptions",
          "type": "tuple[]"
        },
        {
          "internalType": "uint256",
          "name": "tokenId",
          "type": "uint256"
        },
        {
          "internalType": "uint128",
          "name": "numberOfContracts",
          "type": "uint128"
        }
      ],
      "name": "computeExercisedAmounts",
      "outputs": [
        {
          "internalType": "int128",
          "name": "transactedAmount0",
          "type": "int128"
        },
        {
          "internalType": "int128",
          "name": "transactedAmount1",
          "type": "int128"
        },
        {
          "internalType": "int128",
          "name": "premium0",
          "type": "int128"
        },
        {
          "internalType": "int128",
          "name": "premium1",
          "type": "int128"
        }
      ],
      "stateMutability": "view",
      "type": "function"
    },
    {
      "inputs": [
        {
          "internalType": "contract IUniswapV3Pool",
          "name": "pool",
          "type": "IUniswapV3Pool"
        },
        {
          "internalType": "uint256",
          "name": "tokenId",
          "type": "uint256"
        },
        {
          "internalType": "uint8",
          "name": "index",
          "type": "uint8"
        },
        {
          "internalType": "uint128",
          "name": "numberOfContracts",
          "type": "uint128"
        }
      ],
      "name": "exerciseOptionsDeltas",
      "outputs": [
        {
          "internalType": "int128",
          "name": "amount0Delta",
          "type": "int128"
        },
        {
          "internalType": "int128",
          "name": "amount1Delta",
          "type": "int128"
        }
      ],
      "stateMutability": "view",
      "type": "function"
    },
    {
      "inputs": [
        {
          "internalType": "uint256",
          "name": "tokenId",
          "type": "uint256"
        },
        {
          "internalType": "uint8",
          "name": "index",
          "type": "uint8"
        },
        {
          "internalType": "uint128",
          "name": "numberOfContracts",
          "type": "uint128"
        },
        {
          "internalType": "int24",
          "name": "tickSpacing",
          "type": "int24"
        }
      ],
      "name": "getTicksAndLegLiquidityEff",
      "outputs": [
        {
          "components": [
            {
              "internalType": "int24",
              "name": "tickLower",
              "type": "int24"
            },
            {
              "internalType": "int24",
              "name": "tickUpper",
              "type": "int24"
            },
            {
              "internalType": "uint128",
              "name": "legLiquidity",
              "type": "uint128"
            }
          ],
          "internalType": "struct PanopticBase.TickInfo",
          "name": "tickInfo",
          "type": "tuple"
        }
      ],
      "stateMutability": "pure",
      "type": "function"
    },
    {
      "inputs": [
        {
          "internalType": "uint256",
          "name": "tokenId",
          "type": "uint256"
        },
        {
          "internalType": "uint128",
          "name": "numberOfContracts",
          "type": "uint128"
        },
        {
          "internalType": "int24",
          "name": "tickSpacing",
          "type": "int24"
        }
      ],
      "name": "getTotalNotionalByTokenId",
      "outputs": [
        {
          "internalType": "uint128",
          "name": "notionalToken0",
          "type": "uint128"
        },
        {
          "internalType": "uint128",
          "name": "notionalToken1",
          "type": "uint128"
        }
      ],
      "stateMutability": "view",
      "type": "function"
    },
    {
      "inputs": [
        {
          "internalType": "int24",
          "name": "a",
          "type": "int24"
        },
        {
          "internalType": "int24",
          "name": "b",
          "type": "int24"
        }
      ],
      "name": "max24",
      "outputs": [
        {
          "internalType": "int24",
          "name": "",
          "type": "int24"
        }
      ],
      "stateMutability": "pure",
      "type": "function"
    },
    {
      "inputs": [
        {
          "internalType": "int24",
          "name": "a",
          "type": "int24"
        },
        {
          "internalType": "int24",
          "name": "b",
          "type": "int24"
        }
      ],
      "name": "min24",
      "outputs": [
        {
          "internalType": "int24",
          "name": "",
          "type": "int24"
        }
      ],
      "stateMutability": "pure",
      "type": "function"
    }
  ],
  "bytecode": "0x6120e4610026600b82828239805160001a60731461001957fe5b30600052607381538281f3fe73000000000000000000000000000000000000000030146080604052600436106100be5760003560e01c8063683357771161007b57806368335777146101d457806369f65163146102055780636be15a1f146102355780637be66f85146102665780639bba333514610296578063cd19ecc3146102c7576100be565b806306c15e52146100c35780630d5a9826146100f457806315dea267146101255780631b5ac4b5146101565780632e0f26251461018657806352ca82ee146101a4575b600080fd5b6100dd60048036038101906100d891906118c8565b6102fa565b6040516100eb929190611d25565b60405180910390f35b61010e600480360381019061010991906117ee565b6104c6565b60405161011c929190611e28565b60405180910390f35b61013f600480360381019061013a9190611990565b610546565b60405161014d929190611dc9565b60405180910390f35b610170600480360381019061016b91906119df565b6105ab565b60405161017d9190611df2565b60405180910390f35b61018e6105c7565b60405161019b9190611e51565b60405180910390f35b6101be60048036038101906101b99190611954565b6105cd565b6040516101cb9190611d93565b60405180910390f35b6101ee60048036038101906101e9919061179f565b6105ed565b6040516101fc929190611e6c565b60405180910390f35b61021f600480360381019061021a9190611bf9565b6108f7565b60405161022c9190611e0d565b60405180910390f35b61024f600480360381019061024a9190611baa565b6109b7565b60405161025d929190611e28565b60405180910390f35b610280600480360381019061027b9190611954565b610a2f565b60405161028d9190611d93565b60405180910390f35b6102b060048036038101906102ab9190611851565b610a4f565b6040516102be929190611d25565b60405180910390f35b6102e160048036038101906102dc919061171f565b610bdd565b6040516102f19493929190611d4e565b60405180910390f35b60008060008673ffffffffffffffffffffffffffffffffffffffff16633850c7bd6040518163ffffffff1660e01b815260040160e06040518083038186803b15801561034557600080fd5b505afa158015610359573d6000803e3d6000fd5b505050506040513d601f19601f8201168201806040525081019061037d9190611ae3565b5050505050915050600061039387600588610c90565b905060008061042189888a8d73ffffffffffffffffffffffffffffffffffffffff1663d0c93a7c6040518163ffffffff1660e01b815260040160206040518083038186803b1580156103e457600080fd5b505afa1580156103f8573d6000803e3d6000fd5b505050506040513d601f19601f8201168201806040525081019061041c919061192b565b610dcd565b9150915060016104338a60038b610c90565b141561047b578260020b8460020b12156104765760006104558a60028b610c90565b141561046a5781860195508085039450610475565b818603955080850194505b5b6104b9565b8260020b8460020b13156104b85760006104978a60028b610c90565b14156104ac57818603955080850194506104b7565b818601955080850394505b5b5b5050505094509492505050565b6000806000806104d78888886105ed565b9150915061050982866fffffffffffffffffffffffffffffffff16700100000000000000000000000000000000610e20565b935061053981866fffffffffffffffffffffffffffffffff16700100000000000000000000000000000000610e20565b9250505094509492505050565b6000806000600284860260020b8161055a57fe5b059050610fff8560020b146105745780860381870161059a565b7ffffffffffffffffffffffffffffffffffffffffffffffffffffffffffff27618806000035b809350819450505050935093915050565b6000808212156105be57816000036105c0565b815b9050919050565b61271081565b60008160020b8360020b12156105e357816105e5565b825b905092915050565b60008060008573ffffffffffffffffffffffffffffffffffffffff16633850c7bd6040518163ffffffff1660e01b815260040160e06040518083038186803b15801561063857600080fd5b505afa15801561064c573d6000803e3d6000fd5b505050506040513d601f19601f820116820180604052508101906106709190611ae3565b50505050509150506000808773ffffffffffffffffffffffffffffffffffffffff1663f30dba93886040518263ffffffff1660e01b81526004016106b49190611dae565b6101006040518083038186803b1580156106cd57600080fd5b505afa1580156106e1573d6000803e3d6000fd5b505050506040513d601f19601f820116820180604052508101906107059190611a31565b505050509350935050506000808973ffffffffffffffffffffffffffffffffffffffff1663f30dba93896040518263ffffffff1660e01b815260040161074b9190611dae565b6101006040518083038186803b15801561076457600080fd5b505afa158015610778573d6000803e3d6000fd5b505050506040513d601f19601f8201168201806040525081019061079c9190611a31565b505050509350935050508860020b8560020b12156107c357818403965080830395506108ea565b8760020b8560020b13156107e057838203965082810395506108e9565b81848b73ffffffffffffffffffffffffffffffffffffffff1663f30583996040518163ffffffff1660e01b815260040160206040518083038186803b15801561082857600080fd5b505afa15801561083c573d6000803e3d6000fd5b505050506040513d601f19601f820116820180604052508101906108609190611b81565b0303965080838b73ffffffffffffffffffffffffffffffffffffffff1663461413196040518163ffffffff1660e01b815260040160206040518083038186803b1580156108ac57600080fd5b505afa1580156108c0573d6000803e3d6000fd5b505050506040513d601f19601f820116820180604052508101906108e49190611b81565b030395505b5b5050505050935093915050565b6108ff6114ec565b61092061090e86600587610c90565b61091a87600688610c90565b84610546565b82600001836020018260020b60020b8152508260020b60020b815250505061098061094e8260000151610efa565b61095b8360200151610efa565b61096788600189610c90565b866fffffffffffffffffffffffffffffffff1602611335565b81604001906fffffffffffffffffffffffffffffffff1690816fffffffffffffffffffffffffffffffff1681525050949350505050565b60008060005b60048160ff161015610a265760006109d787600184610c90565b14156109e257610a26565b6000806109f188888589610dcd565b915091506000610a0389600386610c90565b1415610a13578085019450610a19565b81840193505b50508060010190506109bd565b50935093915050565b60008160020b8360020b1315610a455781610a47565b825b905092915050565b6000806000610add8787868b73ffffffffffffffffffffffffffffffffffffffff1663d0c93a7c6040518163ffffffff1660e01b815260040160206040518083038186803b158015610aa057600080fd5b505afa158015610ab4573d6000803e3d6000fd5b505050506040513d601f19601f82011682018060405250810190610ad8919061192b565b6108f7565b9050600080610afa8a8460000151856020015186604001516104c6565b915091506001610b0c8a60028b610c90565b1415610bb9576000610b5788604001516fffffffffffffffffffffffffffffffff1661271061ffff1686604001518b60400151036fffffffffffffffffffffffffffffffff16610e20565b9050610b82886000015184036fffffffffffffffffffffffffffffffff168261271061ffff16610e20565b86039550610baf886020015183036fffffffffffffffffffffffffffffffff168261271061ffff16610e20565b8503945050610bd0565b866000015182038501945086602001518103840193505b5050509550959350505050565b60008060008060005b60048160ff161015610c83576000610c0088600184610c90565b1415610c0b57610c83565b600089898360ff16818110610c1c57fe5b905060600201803603810190610c329190611a08565b9050600080610c448d8b86868d610a4f565b9150915081860195508085019450600080610c618f8d888e6102fa565b915091508382018a019950828101890198505050505050806001019050610be6565b5095509550955095915050565b6000808360ff161415610cb1578369ffffffffffffffffffff169050610dc6565b60018360ff161415610cde5760106004830260500160ff1685901c81610cd357fe5b0660ff169050610dc6565b60028360ff161415610d0b5760026028830260600160ff1685901c81610d0057fe5b0660ff169050610dc6565b60038360ff161415610d3b5760026001602884026060010160ff1685901c81610d3057fe5b0660ff169050610dc6565b60048360ff161415610d6b5760046002602884026060010160ff1685901c81610d6057fe5b0660ff169050610dc6565b60058360ff161415610d93576004602883026060010160ff1684901c62ffffff169050610dc6565b60068360ff161415610dc557611000601c602884026060010160ff1685901c81610db957fe5b0661ffff169050610dc6565b5b9392505050565b600080600080610df4610de289600589610c90565b610dee8a60068a610c90565b87610546565b91509150610e0488600188610c90565b87029350610e138483836113b7565b9250505094509492505050565b600080600080198587098587029250828110838203039150506000811415610e5b5760008411610e4f57600080fd5b83820492505050610ef3565b808411610e6757600080fd5b600084868809905082811182039150808303925060008586600003169050808604955080840493506001818260000304019050808302841793506000600287600302189050808702600203810290508087026002038102905080870260020381029050808702600203810290508087026002038102905080870260020381029050808502955050505050505b9392505050565b60008060008360020b12610f11578260020b610f19565b8260020b6000035b90507ffffffffffffffffffffffffffffffffffffffffffffffffffffffffffff2761860000360020b811115610fb7576040517f08c379a00000000000000000000000000000000000000000000000000000000081526004018080602001828103825260018152602001807f540000000000000000000000000000000000000000000000000000000000000081525060200191505060405180910390fd5b600080600183161415610fdb57700100000000000000000000000000000000610fed565b6ffffcb933bd6fad37aa2d162d1a5940015b70ffffffffffffffffffffffffffffffffff169050600060028316146110275760806ffff97272373d413259a46990580e213a8202901c90505b6000600483161461104c5760806ffff2e50f5f656932ef12357cf3c7fdcc8202901c90505b600060088316146110715760806fffe5caca7e10e4e61c3624eaa0941cd08202901c90505b600060108316146110965760806fffcb9843d60f6159c9db58835c9266448202901c90505b600060208316146110bb5760806fff973b41fa98c081472e6896dfb254c08202901c90505b600060408316146110e05760806fff2ea16466c96a3843ec78b326b528618202901c90505b600060808316146111055760806ffe5dee046a99a2a811c461f1969c30538202901c90505b600061010083161461112b5760806ffcbe86c7900a88aedcffc83b479aa3a48202901c90505b60006102008316146111515760806ff987a7253ac413176f2b074cf7815e548202901c90505b60006104008316146111775760806ff3392b0822b70005940c7a398e4b70f38202901c90505b600061080083161461119d5760806fe7159475a2c29b7443b29c7fa6e889d98202901c90505b60006110008316146111c35760806fd097f3bdfd2022b8845ad8f792aa58258202901c90505b60006120008316146111e95760806fa9f746462d870fdf8a65dc1f90e061e58202901c90505b600061400083161461120f5760806f70d869a156d2a1b890bb3df62baf32f78202901c90505b60006180008316146112355760806f31be135f97d08fd981231505542fcfa68202901c90505b60006201000083161461125c5760806f09aa508b5b7a84e1c677de54f3e99bc98202901c90505b6000620200008316146112825760806e5d6af8dedb81196699c329225ee6048202901c90505b6000620400008316146112a75760806d2216e584f5fa1ea926041bedfe988202901c90505b6000620800008316146112ca5760806b048a170391f7dc42444e8fa28202901c90505b60008460020b131561130357807fffffffffffffffffffffffffffffffffffffffffffffffffffffffffffffffff816112ff57fe5b0490505b6000640100000000828161131357fe5b0614611320576001611323565b60005b60ff16602082901c0192505050919050565b60008273ffffffffffffffffffffffffffffffffffffffff168473ffffffffffffffffffffffffffffffffffffffff16111561137657828480945081955050505b6113ae6113a9836c0100000000000000000000000087870373ffffffffffffffffffffffffffffffffffffffff16610e20565b611409565b90509392505050565b60006114006113c584610efa565b6113ce84610efa565b6113fb6113da87610efa565b6113e387610efa565b896fffffffffffffffffffffffffffffffff16611335565b611431565b90509392505050565b600081829150816fffffffffffffffffffffffffffffffff161461142c57600080fd5b919050565b60008273ffffffffffffffffffffffffffffffffffffffff168473ffffffffffffffffffffffffffffffffffffffff16111561147257828480945081955050505b8373ffffffffffffffffffffffffffffffffffffffff166114db606060ff16846fffffffffffffffffffffffffffffffff16901b86860373ffffffffffffffffffffffffffffffffffffffff168673ffffffffffffffffffffffffffffffffffffffff16610e20565b816114e257fe5b0490509392505050565b6040518060600160405280600060020b8152602001600060020b815260200160006fffffffffffffffffffffffffffffffff1681525090565b60008083601f84011261153757600080fd5b8235905067ffffffffffffffff81111561155057600080fd5b60208301915083606082028301111561156857600080fd5b9250929050565b60008151905061157e81611f9a565b92915050565b60008135905061159381611fb1565b92915050565b6000815190506115a881611fc8565b92915050565b6000813590506115bd81611fdf565b92915050565b6000815190506115d281611fdf565b92915050565b6000813590506115e781611ff6565b92915050565b6000815190506115fc8161200d565b92915050565b60006060828403121561161457600080fd5b61161e6060611e95565b9050600061162e84828501611662565b600083015250602061164284828501611662565b602083015250604061165684828501611662565b60408301525092915050565b60008135905061167181612024565b92915050565b60008151905061168681612024565b92915050565b60008151905061169b81612052565b92915050565b6000815190506116b08161203b565b92915050565b6000813590506116c581612069565b92915050565b6000815190506116da81612069565b92915050565b6000815190506116ef81612080565b92915050565b60008135905061170481612097565b92915050565b60008151905061171981612097565b92915050565b60008060008060006080868803121561173757600080fd5b600061174588828901611584565b955050602086013567ffffffffffffffff81111561176257600080fd5b61176e88828901611525565b94509450506040611781888289016116b6565b925050606061179288828901611662565b9150509295509295909350565b6000806000606084860312156117b457600080fd5b60006117c286828701611584565b93505060206117d3868287016115ae565b92505060406117e4868287016115ae565b9150509250925092565b6000806000806080858703121561180457600080fd5b600061181287828801611584565b9450506020611823878288016115ae565b9350506040611834878288016115ae565b925050606061184587828801611662565b91505092959194509250565b600080600080600060e0868803121561186957600080fd5b600061187788828901611584565b9550506020611888888289016116b6565b9450506040611899888289016116f5565b93505060606118aa88828901611602565b92505060c06118bb88828901611662565b9150509295509295909350565b600080600080608085870312156118de57600080fd5b60006118ec87828801611584565b94505060206118fd878288016116b6565b935050604061190e878288016116f5565b925050606061191f87828801611662565b91505092959194509250565b60006020828403121561193d57600080fd5b600061194b848285016115c3565b91505092915050565b6000806040838503121561196757600080fd5b6000611975858286016115ae565b9250506020611986858286016115ae565b9150509250929050565b6000806000606084860312156119a557600080fd5b60006119b3868287016115ae565b93505060206119c4868287016115ae565b92505060406119d5868287016115ae565b9150509250925092565b6000602082840312156119f157600080fd5b60006119ff848285016115d8565b91505092915050565b600060608284031215611a1a57600080fd5b6000611a2884828501611602565b91505092915050565b600080600080600080600080610100898b031215611a4e57600080fd5b6000611a5c8b828c01611677565b9850506020611a6d8b828c01611599565b9750506040611a7e8b828c016116cb565b9650506060611a8f8b828c016116cb565b9550506080611aa08b828c016115ed565b94505060a0611ab18b828c0161168c565b93505060c0611ac28b828c016116e0565b92505060e0611ad38b828c0161156f565b9150509295985092959890939650565b600080600080600080600060e0888a031215611afe57600080fd5b6000611b0c8a828b0161168c565b9750506020611b1d8a828b016115c3565b9650506040611b2e8a828b016116a1565b9550506060611b3f8a828b016116a1565b9450506080611b508a828b016116a1565b93505060a0611b618a828b0161170a565b92505060c0611b728a828b0161156f565b91505092959891949750929550565b600060208284031215611b9357600080fd5b6000611ba1848285016116cb565b91505092915050565b600080600060608486031215611bbf57600080fd5b6000611bcd868287016116b6565b9350506020611bde86828701611662565b9250506040611bef868287016115ae565b9150509250925092565b60008060008060808587031215611c0f57600080fd5b6000611c1d878288016116b6565b9450506020611c2e878288016116f5565b9350506040611c3f87828801611662565b9250506060611c50878288016115ae565b91505092959194509250565b611c6581611ef6565b82525050565b611c7481611f03565b82525050565b611c8381611f03565b82525050565b611c9281611f03565b82525050565b611ca181611f10565b82525050565b606082016000820151611cbd6000850182611c89565b506020820151611cd06020850182611c89565b506040820151611ce36040850182611cf8565b50505050565b611cf281611f27565b82525050565b611d0181611f27565b82525050565b611d1081611f43565b82525050565b611d1f81611f71565b82525050565b6000604082019050611d3a6000830185611c5c565b611d476020830184611c5c565b9392505050565b6000608082019050611d636000830187611c5c565b611d706020830186611c5c565b611d7d6040830185611c5c565b611d8a6060830184611c5c565b95945050505050565b6000602082019050611da86000830184611c7a565b92915050565b6000602082019050611dc36000830184611c6b565b92915050565b6000604082019050611dde6000830185611c7a565b611deb6020830184611c7a565b9392505050565b6000602082019050611e076000830184611c98565b92915050565b6000606082019050611e226000830184611ca7565b92915050565b6000604082019050611e3d6000830185611ce9565b611e4a6020830184611ce9565b9392505050565b6000602082019050611e666000830184611d07565b92915050565b6000604082019050611e816000830185611d16565b611e8e6020830184611d16565b9392505050565b6000604051905081810181811067ffffffffffffffff82111715611ebc57611ebb611f98565b5b8060405250919050565b6000611ed182611f51565b9050919050565b60008115159050919050565b6000611eef82611ec6565b9050919050565b600081600f0b9050919050565b60008160020b9050919050565b6000819050919050565b60008160060b9050919050565b60006fffffffffffffffffffffffffffffffff82169050919050565b600061ffff82169050919050565b600073ffffffffffffffffffffffffffffffffffffffff82169050919050565b6000819050919050565b600063ffffffff82169050919050565b600060ff82169050919050565bfe5b611fa381611ed8565b8114611fae57600080fd5b50565b611fba81611ee4565b8114611fc557600080fd5b50565b611fd181611ef6565b8114611fdc57600080fd5b50565b611fe881611f03565b8114611ff357600080fd5b50565b611fff81611f10565b811461200a57600080fd5b50565b61201681611f1a565b811461202157600080fd5b50565b61202d81611f27565b811461203857600080fd5b50565b61204481611f43565b811461204f57600080fd5b50565b61205b81611f51565b811461206657600080fd5b50565b61207281611f71565b811461207d57600080fd5b50565b61208981611f7b565b811461209457600080fd5b50565b6120a081611f8b565b81146120ab57600080fd5b5056fea2646970667358221220b1eea77b63a0a079f05f455b342021610d1d90334a49724bee64a2108f3ce45d64736f6c63430007060033",
  "linkReferences": {},
  "deployedLinkReferences": {}
}