{
  "_format": "hh-sol-artifact-1",
  "contractName": "PanopticPool",
  "sourceName": "contracts/PanopticPool.sol",
  "abi": [
    {
      "inputs": [
        {
          "internalType": "address",
          "name": "_sfpm",
          "type": "address"
        }
      ],
      "stateMutability": "nonpayable",
      "type": "constructor"
    },
    {
      "anonymous": false,
      "inputs": [
        {
          "indexed": false,
          "internalType": "address",
          "name": "user",
          "type": "address"
        },
        {
          "indexed": false,
          "internalType": "address",
          "name": "tokenAddress",
          "type": "address"
        },
        {
          "indexed": false,
          "internalType": "uint256",
          "name": "amount",
          "type": "uint256"
        }
      ],
      "name": "Deposited",
      "type": "event"
    },
    {
      "anonymous": false,
      "inputs": [
        {
          "indexed": false,
          "internalType": "uint256",
          "name": "positionID",
          "type": "uint256"
        },
        {
          "indexed": false,
          "internalType": "uint256",
          "name": "amount0Collected",
          "type": "uint256"
        },
        {
          "indexed": false,
          "internalType": "uint256",
          "name": "amount1Collected",
          "type": "uint256"
        }
      ],
      "name": "FeesCollected",
      "type": "event"
    },
    {
      "anonymous": false,
      "inputs": [
        {
          "indexed": true,
          "internalType": "address",
          "name": "previousOwner",
          "type": "address"
        },
        {
          "indexed": true,
          "internalType": "address",
          "name": "newOwner",
          "type": "address"
        }
      ],
      "name": "OwnershipTransferred",
      "type": "event"
    },
    {
      "anonymous": false,
      "inputs": [
        {
          "indexed": false,
          "internalType": "address",
          "name": "user",
          "type": "address"
        },
        {
          "indexed": false,
          "internalType": "address",
          "name": "tokenAddress",
          "type": "address"
        },
        {
          "indexed": false,
          "internalType": "uint256",
          "name": "amount",
          "type": "uint256"
        }
      ],
      "name": "Withdrawn",
      "type": "event"
    },
    {
      "inputs": [],
      "name": "COMMISSION_FEE",
      "outputs": [
        {
          "internalType": "uint16",
          "name": "",
          "type": "uint16"
        }
      ],
      "stateMutability": "view",
      "type": "function"
    },
    {
      "inputs": [],
      "name": "DECIMALS",
      "outputs": [
        {
          "internalType": "uint16",
          "name": "",
          "type": "uint16"
        }
      ],
      "stateMutability": "view",
      "type": "function"
    },
    {
      "inputs": [
        {
          "internalType": "uint256",
          "name": "tokenId",
          "type": "uint256"
        }
      ],
      "name": "burnOptions",
      "outputs": [],
      "stateMutability": "nonpayable",
      "type": "function"
    },
    {
      "inputs": [
        {
          "internalType": "uint256",
          "name": "amount",
          "type": "uint256"
        },
        {
          "internalType": "address",
          "name": "token",
          "type": "address"
        }
      ],
      "name": "deposit",
      "outputs": [],
      "stateMutability": "nonpayable",
      "type": "function"
    },
    {
      "inputs": [
        {
          "internalType": "address",
          "name": "user",
          "type": "address"
        },
        {
          "internalType": "bool",
          "name": "isToken0",
          "type": "bool"
        }
      ],
      "name": "getUnlockedAmount",
      "outputs": [
        {
          "internalType": "uint256",
          "name": "",
          "type": "uint256"
        }
      ],
      "stateMutability": "view",
      "type": "function"
    },
    {
      "inputs": [
        {
          "internalType": "uint256[]",
          "name": "positionIdList",
          "type": "uint256[]"
        },
        {
          "internalType": "uint128",
          "name": "numberOfContracts",
          "type": "uint128"
        }
      ],
      "name": "mintOptions",
      "outputs": [],
      "stateMutability": "nonpayable",
      "type": "function"
    },
    {
      "inputs": [
        {
          "internalType": "address",
          "name": "",
          "type": "address"
        },
        {
          "internalType": "address",
          "name": "",
          "type": "address"
        },
        {
          "internalType": "uint256[]",
          "name": "",
          "type": "uint256[]"
        },
        {
          "internalType": "uint256[]",
          "name": "",
          "type": "uint256[]"
        },
        {
          "internalType": "bytes",
          "name": "",
          "type": "bytes"
        }
      ],
      "name": "onERC1155BatchReceived",
      "outputs": [
        {
          "internalType": "bytes4",
          "name": "",
          "type": "bytes4"
        }
      ],
      "stateMutability": "nonpayable",
      "type": "function"
    },
    {
      "inputs": [
        {
          "internalType": "address",
          "name": "",
          "type": "address"
        },
        {
          "internalType": "address",
          "name": "",
          "type": "address"
        },
        {
          "internalType": "uint256",
          "name": "",
          "type": "uint256"
        },
        {
          "internalType": "uint256",
          "name": "",
          "type": "uint256"
        },
        {
          "internalType": "bytes",
          "name": "",
          "type": "bytes"
        }
      ],
      "name": "onERC1155Received",
      "outputs": [
        {
          "internalType": "bytes4",
          "name": "",
          "type": "bytes4"
        }
      ],
      "stateMutability": "nonpayable",
      "type": "function"
    },
    {
      "inputs": [
        {
          "internalType": "address",
          "name": "",
          "type": "address"
        },
        {
          "internalType": "uint256",
          "name": "",
          "type": "uint256"
        },
        {
          "internalType": "uint256",
          "name": "",
          "type": "uint256"
        }
      ],
      "name": "options",
      "outputs": [
        {
          "internalType": "uint128",
          "name": "feesBase0",
          "type": "uint128"
        },
        {
          "internalType": "uint128",
          "name": "feesBase1",
          "type": "uint128"
        },
        {
          "internalType": "uint128",
          "name": "baseLiquidity",
          "type": "uint128"
        }
      ],
      "stateMutability": "view",
      "type": "function"
    },
    {
      "inputs": [],
      "name": "owner",
      "outputs": [
        {
          "internalType": "address",
          "name": "",
          "type": "address"
        }
      ],
      "stateMutability": "view",
      "type": "function"
    },
    {
      "inputs": [],
      "name": "pool",
      "outputs": [
        {
          "internalType": "contract IUniswapV3Pool",
          "name": "",
          "type": "address"
        }
      ],
      "stateMutability": "view",
      "type": "function"
    },
    {
      "inputs": [],
      "name": "poolBalances",
      "outputs": [
        {
          "internalType": "uint128",
          "name": "totalToken0CollectedFee",
          "type": "uint128"
        },
        {
          "internalType": "uint128",
          "name": "totalToken1CollectedFee",
          "type": "uint128"
        },
        {
          "internalType": "uint128",
          "name": "totalToken0InAMM",
          "type": "uint128"
        },
        {
          "internalType": "uint128",
          "name": "totalToken1InAMM",
          "type": "uint128"
        }
      ],
      "stateMutability": "view",
      "type": "function"
    },
    {
      "inputs": [
        {
          "internalType": "address",
          "name": "",
          "type": "address"
        },
        {
          "internalType": "uint256",
          "name": "",
          "type": "uint256"
        }
      ],
      "name": "positionBalance",
      "outputs": [
        {
          "internalType": "uint128",
          "name": "",
          "type": "uint128"
        }
      ],
      "stateMutability": "view",
      "type": "function"
    },
    {
      "inputs": [
        {
          "internalType": "address",
          "name": "",
          "type": "address"
        }
      ],
      "name": "positionCounter",
      "outputs": [
        {
          "internalType": "uint256",
          "name": "",
          "type": "uint256"
        }
      ],
      "stateMutability": "view",
      "type": "function"
    },
    {
      "inputs": [],
      "name": "receiptToken0",
      "outputs": [
        {
          "internalType": "contract ReceiptBase",
          "name": "",
          "type": "address"
        }
      ],
      "stateMutability": "view",
      "type": "function"
    },
    {
      "inputs": [],
      "name": "receiptToken1",
      "outputs": [
        {
          "internalType": "contract ReceiptBase",
          "name": "",
          "type": "address"
        }
      ],
      "stateMutability": "view",
      "type": "function"
    },
    {
      "inputs": [],
      "name": "renounceOwnership",
      "outputs": [],
      "stateMutability": "nonpayable",
      "type": "function"
    },
    {
      "inputs": [],
      "name": "sfpm",
      "outputs": [
        {
          "internalType": "contract ISemiFungiblePositionManager",
          "name": "",
          "type": "address"
        }
      ],
      "stateMutability": "view",
      "type": "function"
    },
    {
      "inputs": [
        {
          "internalType": "address",
          "name": "_pool",
          "type": "address"
        },
        {
          "internalType": "address",
          "name": "_receiptReference",
          "type": "address"
        }
      ],
      "name": "startPool",
      "outputs": [],
      "stateMutability": "nonpayable",
      "type": "function"
    },
    {
      "inputs": [
        {
          "internalType": "bytes4",
          "name": "interfaceId",
          "type": "bytes4"
        }
      ],
      "name": "supportsInterface",
      "outputs": [
        {
          "internalType": "bool",
          "name": "",
          "type": "bool"
        }
      ],
      "stateMutability": "view",
      "type": "function"
    },
    {
      "inputs": [],
      "name": "tickSpacing",
      "outputs": [
        {
          "internalType": "int24",
          "name": "",
          "type": "int24"
        }
      ],
      "stateMutability": "view",
      "type": "function"
    },
    {
      "inputs": [],
      "name": "token0",
      "outputs": [
        {
          "internalType": "address",
          "name": "",
          "type": "address"
        }
      ],
      "stateMutability": "view",
      "type": "function"
    },
    {
      "inputs": [],
      "name": "token1",
      "outputs": [
        {
          "internalType": "address",
          "name": "",
          "type": "address"
        }
      ],
      "stateMutability": "view",
      "type": "function"
    },
    {
      "inputs": [
        {
          "internalType": "address",
          "name": "newOwner",
          "type": "address"
        }
      ],
      "name": "transferOwnership",
      "outputs": [],
      "stateMutability": "nonpayable",
      "type": "function"
    },
    {
      "inputs": [
        {
          "internalType": "uint256",
          "name": "amount",
          "type": "uint256"
        },
        {
          "internalType": "address",
          "name": "token",
          "type": "address"
        },
        {
          "internalType": "uint256[]",
          "name": "positionIdList",
          "type": "uint256[]"
        }
      ],
      "name": "withdraw",
      "outputs": [],
      "stateMutability": "nonpayable",
      "type": "function"
    }
  ],
  "bytecode": "0x60a06040523480156200001157600080fd5b50604051620062363803806200623683398181016040528101906200003791906200028e565b6000620000496200016560201b60201c565b9050806000806101000a81548173ffffffffffffffffffffffffffffffffffffffff021916908373ffffffffffffffffffffffffffffffffffffffff1602179055508073ffffffffffffffffffffffffffffffffffffffff16600073ffffffffffffffffffffffffffffffffffffffff167f8be0079c531659141344cd1fd0a4f28419497f9722a3daafe3b4186f6b6457e060405160405180910390a35060018081905550620001066301ffc9a760e01b6200016d60201b60201c565b6200012763bc197c8160e01b63f23a6e6160e01b186200016d60201b60201c565b8073ffffffffffffffffffffffffffffffffffffffff1660808173ffffffffffffffffffffffffffffffffffffffff1660601b815250505062000308565b600033905090565b63ffffffff60e01b817bffffffffffffffffffffffffffffffffffffffffffffffffffffffff191614156200020a576040517f08c379a000000000000000000000000000000000000000000000000000000000815260040180806020018281038252601c8152602001807f4552433136353a20696e76616c696420696e746572666163652069640000000081525060200191505060405180910390fd5b600160026000837bffffffffffffffffffffffffffffffffffffffffffffffffffffffff19167bffffffffffffffffffffffffffffffffffffffffffffffffffffffff1916815260200190815260200160002060006101000a81548160ff02191690831515021790555050565b6000815190506200028881620002ee565b92915050565b600060208284031215620002a157600080fd5b6000620002b18482850162000277565b91505092915050565b6000620002c782620002ce565b9050919050565b600073ffffffffffffffffffffffffffffffffffffffff82169050919050565b620002f981620002ba565b81146200030557600080fd5b50565b60805160601c615efc6200033a60003980610cd25280610dc252806110cc528061193552806124e15250615efc6000f3fe608060405234801561001057600080fd5b50600436106101735760003560e01c8063715018a6116100de578063bc197c8111610097578063d0c93a7c11610071578063d0c93a7c14610441578063d21220a71461045f578063f23a6e611461047d578063f2fde38b146104ad57610173565b8063bc197c81146103c5578063c04eb675146103f5578063ca7e3c081461042557610173565b8063715018a6146103175780638da5cb5b146103215780639f65dde51461033f578063b0275d011461035b578063b06c20751461038b578063b8e61311146103a757610173565b8063412330bc11610130578063412330bc146102525780634216fb3e14610273578063506336ca1461028f57806358282d0e146102bf5780636e553f65146102dd5780636ef547f8146102f957610173565b806301ffc9a7146101785780630dfe1681146101a857806316f0115b146101c657806324bf2493146101e45780632e0f26251461020257806338ee6f0014610220575b600080fd5b610192600480360381019061018d9190614d77565b6104c9565b60405161019f9190615644565b60405180910390f35b6101b0610531565b6040516101bd9190615585565b60405180910390f35b6101ce610557565b6040516101db91906156b0565b60405180910390f35b6101ec61057d565b6040516101f991906157c6565b60405180910390f35b61020a6105a3565b60405161021791906159f3565b60405180910390f35b61023a60048036038101906102359190614ca7565b6105a9565b60405161024993929190615977565b60405180910390f35b61025a610651565b60405161026a94939291906159ae565b60405180910390f35b61028d60048036038101906102889190614aa5565b6106df565b005b6102a960048036038101906102a49190614c6b565b610fe4565b6040516102b6919061595c565b60405180910390f35b6102c7611022565b6040516102d491906159f3565b60405180910390f35b6102f760048036038101906102f29190614f83565b611027565b005b6103016110ca565b60405161030e9190615695565b60405180910390f35b61031f6110ee565b005b61032961125b565b6040516103369190615585565b60405180910390f35b61035960048036038101906103549190614cf6565b611284565b005b61037560048036038101906103709190614c2f565b611b9c565b6040516103829190615a0e565b60405180910390f35b6103a560048036038101906103a09190614fbf565b611c93565b005b6103af612177565b6040516103bc91906157c6565b60405180910390f35b6103df60048036038101906103da9190614ae1565b61219d565b6040516103ec919061567a565b60405180910390f35b61040f600480360381019061040a9190614a53565b6121b2565b60405161041c9190615a0e565b60405180910390f35b61043f600480360381019061043a9190614f31565b6121ca565b005b610449612826565b60405161045691906157e1565b60405180910390f35b610467612839565b6040516104749190615585565b60405180910390f35b61049760048036038101906104929190614ba0565b61285f565b6040516104a4919061567a565b60405180910390f35b6104c760048036038101906104c29190614a53565b612874565b005b600060026000837bffffffffffffffffffffffffffffffffffffffffffffffffffffffff19167bffffffffffffffffffffffffffffffffffffffffffffffffffffffff1916815260200190815260200160002060009054906101000a900460ff169050919050565b600460009054906101000a900473ffffffffffffffffffffffffffffffffffffffff1681565b600360009054906101000a900473ffffffffffffffffffffffffffffffffffffffff1681565b600660009054906101000a900473ffffffffffffffffffffffffffffffffffffffff1681565b61271081565b600a60205282600052604060002060205281600052604060002081815481106105d157600080fd5b906000526020600020906002020160009250925050508060000160009054906101000a90046fffffffffffffffffffffffffffffffff16908060000160109054906101000a90046fffffffffffffffffffffffffffffffff16908060010160009054906101000a90046fffffffffffffffffffffffffffffffff16905083565b600b8060000160009054906101000a90046fffffffffffffffffffffffffffffffff16908060000160109054906101000a90046fffffffffffffffffffffffffffffffff16908060010160009054906101000a90046fffffffffffffffffffffffffffffffff16908060010160109054906101000a90046fffffffffffffffffffffffffffffffff16905084565b600073ffffffffffffffffffffffffffffffffffffffff16600360009054906101000a900473ffffffffffffffffffffffffffffffffffffffff1673ffffffffffffffffffffffffffffffffffffffff1614610770576040517f08c379a00000000000000000000000000000000000000000000000000000000081526004016107679061581c565b60405180910390fd5b600073ffffffffffffffffffffffffffffffffffffffff168273ffffffffffffffffffffffffffffffffffffffff1614156107e0576040517f08c379a00000000000000000000000000000000000000000000000000000000081526004016107d79061587c565b60405180910390fd5b81600360006101000a81548173ffffffffffffffffffffffffffffffffffffffff021916908373ffffffffffffffffffffffffffffffffffffffff160217905550600360009054906101000a900473ffffffffffffffffffffffffffffffffffffffff1673ffffffffffffffffffffffffffffffffffffffff1663d0c93a7c6040518163ffffffff1660e01b815260040160206040518083038186803b15801561088957600080fd5b505afa15801561089d573d6000803e3d6000fd5b505050506040513d601f19601f820116820180604052508101906108c19190614e03565b600760146101000a81548162ffffff021916908360020b62ffffff160217905550600360009054906101000a900473ffffffffffffffffffffffffffffffffffffffff1673ffffffffffffffffffffffffffffffffffffffff16630dfe16816040518163ffffffff1660e01b815260040160206040518083038186803b15801561094a57600080fd5b505afa15801561095e573d6000803e3d6000fd5b505050506040513d601f19601f820116820180604052508101906109829190614a7c565b600460006101000a81548173ffffffffffffffffffffffffffffffffffffffff021916908373ffffffffffffffffffffffffffffffffffffffff160217905550600360009054906101000a900473ffffffffffffffffffffffffffffffffffffffff1673ffffffffffffffffffffffffffffffffffffffff1663d21220a76040518163ffffffff1660e01b815260040160206040518083038186803b158015610a2a57600080fd5b505afa158015610a3e573d6000803e3d6000fd5b505050506040513d601f19601f82011682018060405250810190610a629190614a7c565b600560006101000a81548173ffffffffffffffffffffffffffffffffffffffff021916908373ffffffffffffffffffffffffffffffffffffffff160217905550610aab81612a66565b600660006101000a81548173ffffffffffffffffffffffffffffffffffffffff021916908373ffffffffffffffffffffffffffffffffffffffff160217905550600660009054906101000a900473ffffffffffffffffffffffffffffffffffffffff1673ffffffffffffffffffffffffffffffffffffffff1663183744fb600460009054906101000a900473ffffffffffffffffffffffffffffffffffffffff166040518263ffffffff1660e01b8152600401610b689190615585565b600060405180830381600087803b158015610b8257600080fd5b505af1158015610b96573d6000803e3d6000fd5b50505050610ba381612a66565b600760006101000a81548173ffffffffffffffffffffffffffffffffffffffff021916908373ffffffffffffffffffffffffffffffffffffffff160217905550600760009054906101000a900473ffffffffffffffffffffffffffffffffffffffff1673ffffffffffffffffffffffffffffffffffffffff1663183744fb600560009054906101000a900473ffffffffffffffffffffffffffffffffffffffff166040518263ffffffff1660e01b8152600401610c609190615585565b600060405180830381600087803b158015610c7a57600080fd5b505af1158015610c8e573d6000803e3d6000fd5b50505050600460009054906101000a900473ffffffffffffffffffffffffffffffffffffffff1673ffffffffffffffffffffffffffffffffffffffff1663095ea7b37f00000000000000000000000000000000000000000000000000000000000000007fffffffffffffffffffffffffffffffffffffffffffffffffffffffffffffffff6040518363ffffffff1660e01b8152600401610d2f92919061561b565b602060405180830381600087803b158015610d4957600080fd5b505af1158015610d5d573d6000803e3d6000fd5b505050506040513d601f19601f82011682018060405250810190610d819190614d4e565b50600560009054906101000a900473ffffffffffffffffffffffffffffffffffffffff1673ffffffffffffffffffffffffffffffffffffffff1663095ea7b37f00000000000000000000000000000000000000000000000000000000000000007fffffffffffffffffffffffffffffffffffffffffffffffffffffffffffffffff6040518363ffffffff1660e01b8152600401610e1f92919061561b565b602060405180830381600087803b158015610e3957600080fd5b505af1158015610e4d573d6000803e3d6000fd5b505050506040513d601f19601f82011682018060405250810190610e719190614d4e565b50604051806080016040528060006fffffffffffffffffffffffffffffffff16815260200160006fffffffffffffffffffffffffffffffff16815260200160006fffffffffffffffffffffffffffffffff16815260200160006fffffffffffffffffffffffffffffffff16815250600b60008201518160000160006101000a8154816fffffffffffffffffffffffffffffffff02191690836fffffffffffffffffffffffffffffffff16021790555060208201518160000160106101000a8154816fffffffffffffffffffffffffffffffff02191690836fffffffffffffffffffffffffffffffff16021790555060408201518160010160006101000a8154816fffffffffffffffffffffffffffffffff02191690836fffffffffffffffffffffffffffffffff16021790555060608201518160010160106101000a8154816fffffffffffffffffffffffffffffffff02191690836fffffffffffffffffffffffffffffffff1602179055509050505050565b60086020528160005260406000206020528060005260406000206000915091509054906101000a90046fffffffffffffffffffffffffffffffff1681565b600a81565b6000821161106a576040517f08c379a0000000000000000000000000000000000000000000000000000000008152600401611061906158dc565b60405180910390fd5b6110c68133600460009054906101000a900473ffffffffffffffffffffffffffffffffffffffff1673ffffffffffffffffffffffffffffffffffffffff168473ffffffffffffffffffffffffffffffffffffffff161485612b6e565b5050565b7f000000000000000000000000000000000000000000000000000000000000000081565b6110f6612cf4565b73ffffffffffffffffffffffffffffffffffffffff1661111461125b565b73ffffffffffffffffffffffffffffffffffffffff161461119d576040517f08c379a00000000000000000000000000000000000000000000000000000000081526004018080602001828103825260208152602001807f4f776e61626c653a2063616c6c6572206973206e6f7420746865206f776e657281525060200191505060405180910390fd5b600073ffffffffffffffffffffffffffffffffffffffff1660008054906101000a900473ffffffffffffffffffffffffffffffffffffffff1673ffffffffffffffffffffffffffffffffffffffff167f8be0079c531659141344cd1fd0a4f28419497f9722a3daafe3b4186f6b6457e060405160405180910390a360008060006101000a81548173ffffffffffffffffffffffffffffffffffffffff021916908373ffffffffffffffffffffffffffffffffffffffff160217905550565b60008060009054906101000a900473ffffffffffffffffffffffffffffffffffffffff16905090565b600083836001868690500381811061129857fe5b9050602002013590506000600860003373ffffffffffffffffffffffffffffffffffffffff1673ffffffffffffffffffffffffffffffffffffffff1681526020019081526020016000209050600081600084815260200190815260200160002060009054906101000a90046fffffffffffffffffffffffffffffffff166fffffffffffffffffffffffffffffffff1614611367576040517f08c379a000000000000000000000000000000000000000000000000000000000815260040161135e906157fc565b60405180910390fd5b6001600960003373ffffffffffffffffffffffffffffffffffffffff1673ffffffffffffffffffffffffffffffffffffffff168152602001908152602001600020540185859050146113ee576040517f08c379a00000000000000000000000000000000000000000000000000000000081526004016113e5906158fc565b60405180910390fd5b82600860003373ffffffffffffffffffffffffffffffffffffffff1673ffffffffffffffffffffffffffffffffffffffff168152602001908152602001600020600084815260200190815260200160002060006101000a8154816fffffffffffffffffffffffffffffffff02191690836fffffffffffffffffffffffffffffffff1602179055506001600960003373ffffffffffffffffffffffffffffffffffffffff1673ffffffffffffffffffffffffffffffffffffffff168152602001908152602001600020600082825401925050819055506000806114d08486612cfc565b9150915060008073__$5e4b75047fcf4cf95f88a7d3ca82afce95$__630fdfcc80600360009054906101000a900473ffffffffffffffffffffffffffffffffffffffff16338c8c8a600660009054906101000a900473ffffffffffffffffffffffffffffffffffffffff16600760009054906101000a900473ffffffffffffffffffffffffffffffffffffffff166040518863ffffffff1660e01b815260040161158097969594939291906156cb565b604080518083038186803b15801561159757600080fd5b505af41580156115ab573d6000803e3d6000fd5b505050506040513d601f19601f820116820180604052508101906115cf919061502b565b809250819350505061168c6001600660009054906101000a900473ffffffffffffffffffffffffffffffffffffffff1673ffffffffffffffffffffffffffffffffffffffff166370a08231336040518263ffffffff1660e01b815260040161163791906155a0565b60206040518083038186803b15801561164f57600080fd5b505afa158015611663573d6000803e3d6000fd5b505050506040513d601f19601f820116820180604052508101906116879190614f5a565b612d9b565b821115801561174f575061174b6000600760009054906101000a900473ffffffffffffffffffffffffffffffffffffffff1673ffffffffffffffffffffffffffffffffffffffff166370a08231336040518263ffffffff1660e01b81526004016116f691906155a0565b60206040518083038186803b15801561170e57600080fd5b505afa158015611722573d6000803e3d6000fd5b505050506040513d601f19601f820116820180604052508101906117469190614f5a565b612d9b565b8111155b61178e576040517f08c379a00000000000000000000000000000000000000000000000000000000081526004016117859061583c565b60405180910390fd5b83600460009054906101000a900473ffffffffffffffffffffffffffffffffffffffff1673ffffffffffffffffffffffffffffffffffffffff166370a08231306040518263ffffffff1660e01b81526004016117ea9190615585565b60206040518083038186803b15801561180257600080fd5b505afa158015611816573d6000803e3d6000fd5b505050506040513d601f19601f8201168201806040525081019061183a9190614f5a565b101580156118f2575082600560009054906101000a900473ffffffffffffffffffffffffffffffffffffffff1673ffffffffffffffffffffffffffffffffffffffff166370a08231306040518263ffffffff1660e01b815260040161189f9190615585565b60206040518083038186803b1580156118b757600080fd5b505afa1580156118cb573d6000803e3d6000fd5b505050506040513d601f19601f820116820180604052508101906118ef9190614f5a565b10155b611931576040517f08c379a00000000000000000000000000000000000000000000000000000000081526004016119289061585c565b60405180910390fd5b60007f000000000000000000000000000000000000000000000000000000000000000073ffffffffffffffffffffffffffffffffffffffff1663db395b9b888a306040518463ffffffff1660e01b815260040161199093929190615a52565b608060405180830381600087803b1580156119aa57600080fd5b505af11580156119be573d6000803e3d6000fd5b505050506040513d601f19601f820116820180604052508101906119e29190614e2c565b90508060000151600b60010160009054906101000a90046fffffffffffffffffffffffffffffffff166fffffffffffffffffffffffffffffffff1601600b60010160006101000a8154816fffffffffffffffffffffffffffffffff02191690836fffffffffffffffffffffffffffffffff1602179055508060200151600b60010160109054906101000a90046fffffffffffffffffffffffffffffffff166fffffffffffffffffffffffffffffffff1601600b60010160106101000a8154816fffffffffffffffffffffffffffffffff02191690836fffffffffffffffffffffffffffffffff1602179055508060400151600b60000160008282829054906101000a90046fffffffffffffffffffffffffffffffff160192506101000a8154816fffffffffffffffffffffffffffffffff02191690836fffffffffffffffffffffffffffffffff1602179055508060600151600b60000160108282829054906101000a90046fffffffffffffffffffffffffffffffff160192506101000a8154816fffffffffffffffffffffffffffffffff02191690836fffffffffffffffffffffffffffffffff16021790555050505050505050505050565b60008082611bcc57600760009054906101000a900473ffffffffffffffffffffffffffffffffffffffff16611bf0565b600660009054906101000a900473ffffffffffffffffffffffffffffffffffffffff165b905060008173ffffffffffffffffffffffffffffffffffffffff166370a08231866040518263ffffffff1660e01b8152600401611c2d9190615585565b60206040518083038186803b158015611c4557600080fd5b505afa158015611c59573d6000803e3d6000fd5b505050506040513d601f19601f82011682018060405250810190611c7d9190614f5a565b9050611c898482612d9b565b9250505092915050565b60008411611cd6576040517f08c379a0000000000000000000000000000000000000000000000000000000008152600401611ccd9061593c565b60405180910390fd5b600960003373ffffffffffffffffffffffffffffffffffffffff1673ffffffffffffffffffffffffffffffffffffffff168152602001908152602001600020548282905014611d5a576040517f08c379a0000000000000000000000000000000000000000000000000000000008152600401611d51906158fc565b60405180910390fd5b60008073__$5e4b75047fcf4cf95f88a7d3ca82afce95$__630fdfcc80600360009054906101000a900473ffffffffffffffffffffffffffffffffffffffff16338787600860003373ffffffffffffffffffffffffffffffffffffffff1673ffffffffffffffffffffffffffffffffffffffff168152602001908152602001600020600660009054906101000a900473ffffffffffffffffffffffffffffffffffffffff16600760009054906101000a900473ffffffffffffffffffffffffffffffffffffffff166040518863ffffffff1660e01b8152600401611e4497969594939291906156cb565b604080518083038186803b158015611e5b57600080fd5b505af4158015611e6f573d6000803e3d6000fd5b505050506040513d601f19601f82011682018060405250810190611e93919061502b565b91509150600460009054906101000a900473ffffffffffffffffffffffffffffffffffffffff1673ffffffffffffffffffffffffffffffffffffffff168573ffffffffffffffffffffffffffffffffffffffff161415611ff257611efa8533600189612eaa565b81611fb06001600660009054906101000a900473ffffffffffffffffffffffffffffffffffffffff1673ffffffffffffffffffffffffffffffffffffffff166370a08231336040518263ffffffff1660e01b8152600401611f5b91906155a0565b60206040518083038186803b158015611f7357600080fd5b505afa158015611f87573d6000803e3d6000fd5b505050506040513d601f19601f82011682018060405250810190611fab9190614f5a565b612d9b565b1015611ff1576040517f08c379a0000000000000000000000000000000000000000000000000000000008152600401611fe89061591c565b60405180910390fd5b5b600560009054906101000a900473ffffffffffffffffffffffffffffffffffffffff1673ffffffffffffffffffffffffffffffffffffffff168573ffffffffffffffffffffffffffffffffffffffff16141561216f57612077600560009054906101000a900473ffffffffffffffffffffffffffffffffffffffff1633600089612eaa565b8061212d6000600760009054906101000a900473ffffffffffffffffffffffffffffffffffffffff1673ffffffffffffffffffffffffffffffffffffffff166370a08231336040518263ffffffff1660e01b81526004016120d891906155a0565b60206040518083038186803b1580156120f057600080fd5b505afa158015612104573d6000803e3d6000fd5b505050506040513d601f19601f820116820180604052508101906121289190614f5a565b612d9b565b101561216e576040517f08c379a00000000000000000000000000000000000000000000000000000000081526004016121659061591c565b60405180910390fd5b5b505050505050565b600760009054906101000a900473ffffffffffffffffffffffffffffffffffffffff1681565b600063bc197c8160e01b905095945050505050565b60096020528060005260406000206000915090505481565b6000600860003373ffffffffffffffffffffffffffffffffffffffff1673ffffffffffffffffffffffffffffffffffffffff168152602001908152602001600020600083815260200190815260200160002060009054906101000a90046fffffffffffffffffffffffffffffffff1690506000816fffffffffffffffffffffffffffffffff1611612290576040517f08c379a0000000000000000000000000000000000000000000000000000000008152600401612287906158bc565b60405180910390fd5b6000600a60003373ffffffffffffffffffffffffffffffffffffffff1673ffffffffffffffffffffffffffffffffffffffff1681526020019081526020016000206000848152602001908152602001600020905060008060008073__$c3f55a3e7e4b410bf199cd5e3e47df218f$__63cd19ecc3600360009054906101000a900473ffffffffffffffffffffffffffffffffffffffff16878a8a6040518563ffffffff1660e01b81526004016123499493929190615735565b60806040518083038186803b15801561236157600080fd5b505af4158015612375573d6000803e3d6000fd5b505050506040513d601f19601f820116820180604052508101906123999190614da0565b935093509350935060008073__$c3f55a3e7e4b410bf199cd5e3e47df218f$__636be15a1f8a8a600360009054906101000a900473ffffffffffffffffffffffffffffffffffffffff1673ffffffffffffffffffffffffffffffffffffffff1663d0c93a7c6040518163ffffffff1660e01b815260040160206040518083038186803b15801561242857600080fd5b505afa15801561243c573d6000803e3d6000fd5b505050506040513d601f19601f820116820180604052508101906124609190614e03565b6040518463ffffffff1660e01b815260040161247e93929190615a89565b604080518083038186803b15801561249557600080fd5b505af41580156124a9573d6000803e3d6000fd5b505050506040513d601f19601f820116820180604052508101906124cd9190614e7e565b915091506124dd8282888861307b565b60007f000000000000000000000000000000000000000000000000000000000000000073ffffffffffffffffffffffffffffffffffffffff1663dd8c1bc88b306040518363ffffffff1660e01b815260040161253a929190615a29565b608060405180830381600087803b15801561255457600080fd5b505af1158015612568573d6000803e3d6000fd5b505050506040513d601f19601f8201168201806040525081019061258c9190614e2c565b90508060000151600b60010160008282829054906101000a90046fffffffffffffffffffffffffffffffff160192506101000a8154816fffffffffffffffffffffffffffffffff02191690836fffffffffffffffffffffffffffffffff1602179055508060200151600b60010160108282829054906101000a90046fffffffffffffffffffffffffffffffff160192506101000a8154816fffffffffffffffffffffffffffffffff02191690836fffffffffffffffffffffffffffffffff16021790555084600f0b8160400151600b60000160009054906101000a90046fffffffffffffffffffffffffffffffff166fffffffffffffffffffffffffffffffff160103600b60000160006101000a8154816fffffffffffffffffffffffffffffffff02191690836fffffffffffffffffffffffffffffffff16021790555083600f0b8160600151600b60000160109054906101000a90046fffffffffffffffffffffffffffffffff166fffffffffffffffffffffffffffffffff160103600b60000160106101000a8154816fffffffffffffffffffffffffffffffff02191690836fffffffffffffffffffffffffffffffff1602179055506000600860003373ffffffffffffffffffffffffffffffffffffffff1673ffffffffffffffffffffffffffffffffffffffff16815260200190815260200160002060008c815260200190815260200160002060006101000a8154816fffffffffffffffffffffffffffffffff02191690836fffffffffffffffffffffffffffffffff1602179055506001600960003373ffffffffffffffffffffffffffffffffffffffff1673ffffffffffffffffffffffffffffffffffffffff1681526020019081526020016000206000828254039250508190555050505050505050505050565b600760149054906101000a900460020b81565b600560009054906101000a900473ffffffffffffffffffffffffffffffffffffffff1681565b600063f23a6e6160e01b905095945050505050565b61287c612cf4565b73ffffffffffffffffffffffffffffffffffffffff1661289a61125b565b73ffffffffffffffffffffffffffffffffffffffff1614612923576040517f08c379a00000000000000000000000000000000000000000000000000000000081526004018080602001828103825260208152602001807f4f776e61626c653a2063616c6c6572206973206e6f7420746865206f776e657281525060200191505060405180910390fd5b600073ffffffffffffffffffffffffffffffffffffffff168173ffffffffffffffffffffffffffffffffffffffff1614156129a9576040517f08c379a0000000000000000000000000000000000000000000000000000000008152600401808060200182810382526026815260200180615ea16026913960400191505060405180910390fd5b8073ffffffffffffffffffffffffffffffffffffffff1660008054906101000a900473ffffffffffffffffffffffffffffffffffffffff1673ffffffffffffffffffffffffffffffffffffffff167f8be0079c531659141344cd1fd0a4f28419497f9722a3daafe3b4186f6b6457e060405160405180910390a3806000806101000a81548173ffffffffffffffffffffffffffffffffffffffff021916908373ffffffffffffffffffffffffffffffffffffffff16021790555050565b60006040517f3d602d80600a3d3981f3363d3d373d3d3d363d7300000000000000000000000081528260601b60148201527f5af43d82803e903d91602b57fd5bf3000000000000000000000000000000000060288201526037816000f0915050600073ffffffffffffffffffffffffffffffffffffffff168173ffffffffffffffffffffffffffffffffffffffff161415612b69576040517f08c379a00000000000000000000000000000000000000000000000000000000081526004018080602001828103825260168152602001807f455243313136373a20637265617465206661696c65640000000000000000000081525060200191505060405180910390fd5b919050565b6000612b7a838361337b565b90508215612c1657600660009054906101000a900473ffffffffffffffffffffffffffffffffffffffff1673ffffffffffffffffffffffffffffffffffffffff166340c10f1985836040518363ffffffff1660e01b8152600401612bdf92919061561b565b600060405180830381600087803b158015612bf957600080fd5b505af1158015612c0d573d6000803e3d6000fd5b50505050612ca6565b600760009054906101000a900473ffffffffffffffffffffffffffffffffffffffff1673ffffffffffffffffffffffffffffffffffffffff166340c10f1985836040518363ffffffff1660e01b8152600401612c7392919061561b565b600060405180830381600087803b158015612c8d57600080fd5b505af1158015612ca1573d6000803e3d6000fd5b505050505b612cb28585308561348c565b7f8752a472e571a816aea92eec8dae9baf628e840f4929fbcc2d155e6233ff68a7848684604051612ce5939291906155e4565b60405180910390a15050505050565b600033905090565b600080600080600090505b60048160ff161015612d92576000612d21876001846136ac565b1415612d2c57612d92565b612d378686836137e9565b91506000612d47876003846136ac565b1415612d6c576000612d5b876002846136ac565b1415612d675781840193505b612d87565b6000612d7a876002846136ac565b1415612d865781830192505b5b806001019050612d07565b50509250929050565b60008083612dcb57600760009054906101000a900473ffffffffffffffffffffffffffffffffffffffff16612def565b600660009054906101000a900473ffffffffffffffffffffffffffffffffffffffff165b905060008173ffffffffffffffffffffffffffffffffffffffff166318160ddd6040518163ffffffff1660e01b815260040160206040518083038186803b158015612e3957600080fd5b505afa158015612e4d573d6000803e3d6000fd5b505050506040513d601f19601f82011682018060405250810190612e719190614f5a565b905060008114612e9e576000612e8686613bc6565b90508181860281612e9357fe5b049350505050612ea4565b83925050505b92915050565b6000612eb6838361337b565b9050612ec28484611b9c565b821115612f04576040517f08c379a0000000000000000000000000000000000000000000000000000000008152600401612efb9061589c565b60405180910390fd5b8215612f9e57600660009054906101000a900473ffffffffffffffffffffffffffffffffffffffff1673ffffffffffffffffffffffffffffffffffffffff16639dc29fac85836040518363ffffffff1660e01b8152600401612f6792919061561b565b600060405180830381600087803b158015612f8157600080fd5b505af1158015612f95573d6000803e3d6000fd5b5050505061302e565b600760009054906101000a900473ffffffffffffffffffffffffffffffffffffffff1673ffffffffffffffffffffffffffffffffffffffff16639dc29fac85836040518363ffffffff1660e01b8152600401612ffb92919061561b565b600060405180830381600087803b15801561301557600080fd5b505af1158015613029573d6000803e3d6000fd5b505050505b613039858584613e07565b7fd1c19fbcd4551a5edfb66d43d2e337c04837afda3482b42bdf569a8fccdae5fb84868460405161306c939291906155e4565b60405180910390a15050505050565b60008261271061ffff16600a61ffff1687026fffffffffffffffffffffffffffffffff16816130a657fe5b0401905060008261271061ffff16600a61ffff1687026fffffffffffffffffffffffffffffffff16816130d557fe5b04019050600082600f0b131561318657600660009054906101000a900473ffffffffffffffffffffffffffffffffffffffff1673ffffffffffffffffffffffffffffffffffffffff16639dc29fac33613132600186600f0b61337b565b6040518363ffffffff1660e01b815260040161314f9291906155bb565b600060405180830381600087803b15801561316957600080fd5b505af115801561317d573d6000803e3d6000fd5b50505050613226565b600660009054906101000a900473ffffffffffffffffffffffffffffffffffffffff1673ffffffffffffffffffffffffffffffffffffffff166340c10f19336131d6600186600003600f0b61337b565b6040518363ffffffff1660e01b81526004016131f39291906155bb565b600060405180830381600087803b15801561320d57600080fd5b505af1158015613221573d6000803e3d6000fd5b505050505b600081600f0b13156132d357600760009054906101000a900473ffffffffffffffffffffffffffffffffffffffff1673ffffffffffffffffffffffffffffffffffffffff16639dc29fac3361327f600085600f0b61337b565b6040518363ffffffff1660e01b815260040161329c9291906155bb565b600060405180830381600087803b1580156132b657600080fd5b505af11580156132ca573d6000803e3d6000fd5b50505050613373565b600760009054906101000a900473ffffffffffffffffffffffffffffffffffffffff1673ffffffffffffffffffffffffffffffffffffffff166340c10f1933613323600085600003600f0b61337b565b6040518363ffffffff1660e01b81526004016133409291906155bb565b600060405180830381600087803b15801561335a57600080fd5b505af115801561336e573d6000803e3d6000fd5b505050505b505050505050565b600080836133ab57600760009054906101000a900473ffffffffffffffffffffffffffffffffffffffff166133cf565b600660009054906101000a900473ffffffffffffffffffffffffffffffffffffffff165b905060008173ffffffffffffffffffffffffffffffffffffffff166318160ddd6040518163ffffffff1660e01b815260040160206040518083038186803b15801561341957600080fd5b505afa15801561342d573d6000803e3d6000fd5b505050506040513d601f19601f820116820180604052508101906134519190614f5a565b9050600061345e86613bc6565b9050600081141561347457849350505050613486565b808286028161347f57fe5b0493505050505b92915050565b6000808573ffffffffffffffffffffffffffffffffffffffff166323b872dd60e01b868686604051602401808473ffffffffffffffffffffffffffffffffffffffff1681526020018373ffffffffffffffffffffffffffffffffffffffff1681526020018281526020019350505050604051602081830303815290604052907bffffffffffffffffffffffffffffffffffffffffffffffffffffffff19166020820180517bffffffffffffffffffffffffffffffffffffffffffffffffffffffff83818316178352505050506040518082805190602001908083835b6020831061358b5780518252602082019150602081019050602083039250613568565b6001836020036101000a0380198251168184511680821785525050505050509050019150506000604051808303816000865af19150503d80600081146135ed576040519150601f19603f3d011682016040523d82523d6000602084013e6135f2565b606091505b50915091508180156136325750600081511480613631575080806020019051602081101561361f57600080fd5b81019080805190602001909291905050505b5b6136a4576040517f08c379a00000000000000000000000000000000000000000000000000000000081526004018080602001828103825260038152602001807f535446000000000000000000000000000000000000000000000000000000000081525060200191505060405180910390fd5b505050505050565b6000808360ff1614156136cd578369ffffffffffffffffffff1690506137e2565b60018360ff1614156136fa5760106004830260500160ff1685901c816136ef57fe5b0660ff1690506137e2565b60028360ff1614156137275760026028830260600160ff1685901c8161371c57fe5b0660ff1690506137e2565b60038360ff1614156137575760026001602884026060010160ff1685901c8161374c57fe5b0660ff1690506137e2565b60048360ff1614156137875760046002602884026060010160ff1685901c8161377c57fe5b0660ff1690506137e2565b60058360ff1614156137af576004602883026060010160ff1684901c62ffffff1690506137e2565b60068360ff1614156137e157611000601c602884026060010160ff1685901c816137d557fe5b0661ffff1690506137e2565b5b9392505050565b60008073__$c3f55a3e7e4b410bf199cd5e3e47df218f$__6369f65163868587600760149054906101000a900460020b6040518563ffffffff1660e01b81526004016138389493929190615ac0565b60606040518083038186803b15801561385057600080fd5b505af4158015613864573d6000803e3d6000fd5b505050506040513d601f19601f820116820180604052508101906138889190614e55565b90506138aa613899866001866136ac565b850282600001518360200151614008565b91506000600360009054906101000a900473ffffffffffffffffffffffffffffffffffffffff1673ffffffffffffffffffffffffffffffffffffffff1663514ea4bf6138ff308560000151866020015161405a565b6040518263ffffffff1660e01b815260040161391b919061565f565b60a06040518083038186803b15801561393357600080fd5b505afa158015613947573d6000803e3d6000fd5b505050506040513d601f19601f8201168201806040525081019061396b9190614eba565b50505050905060008073__$c3f55a3e7e4b410bf199cd5e3e47df218f$__630d5a9826600360009054906101000a900473ffffffffffffffffffffffffffffffffffffffff168660000151876020015188604001516040518563ffffffff1660e01b81526004016139df9493929190615781565b604080518083038186803b1580156139f657600080fd5b505af4158015613a0a573d6000803e3d6000fd5b505050506040513d601f19601f82011682018060405250810190613a2e9190614e7e565b91509150600a60003373ffffffffffffffffffffffffffffffffffffffff1673ffffffffffffffffffffffffffffffffffffffff16815260200190815260200160002060008981526020019081526020016000206040518060600160405280846fffffffffffffffffffffffffffffffff168152602001836fffffffffffffffffffffffffffffffff168152602001856fffffffffffffffffffffffffffffffff16815250908060018154018082558091505060019003906000526020600020906002020160009091909190915060008201518160000160006101000a8154816fffffffffffffffffffffffffffffffff02191690836fffffffffffffffffffffffffffffffff16021790555060208201518160000160106101000a8154816fffffffffffffffffffffffffffffffff02191690836fffffffffffffffffffffffffffffffff16021790555060408201518160010160006101000a8154816fffffffffffffffffffffffffffffffff02191690836fffffffffffffffffffffffffffffffff1602179055505050505050509392505050565b60008115613cea57600b60010160009054906101000a90046fffffffffffffffffffffffffffffffff166fffffffffffffffffffffffffffffffff16600b60000160009054906101000a90046fffffffffffffffffffffffffffffffff166fffffffffffffffffffffffffffffffff16600460009054906101000a900473ffffffffffffffffffffffffffffffffffffffff1673ffffffffffffffffffffffffffffffffffffffff166370a08231306040518263ffffffff1660e01b8152600401613c919190615585565b60206040518083038186803b158015613ca957600080fd5b505afa158015613cbd573d6000803e3d6000fd5b505050506040513d601f19601f82011682018060405250810190613ce19190614f5a565b03019050613e02565b600b60010160109054906101000a90046fffffffffffffffffffffffffffffffff166fffffffffffffffffffffffffffffffff16600b60000160109054906101000a90046fffffffffffffffffffffffffffffffff166fffffffffffffffffffffffffffffffff16600560009054906101000a900473ffffffffffffffffffffffffffffffffffffffff1673ffffffffffffffffffffffffffffffffffffffff166370a08231306040518263ffffffff1660e01b8152600401613dad9190615585565b60206040518083038186803b158015613dc557600080fd5b505afa158015613dd9573d6000803e3d6000fd5b505050506040513d601f19601f82011682018060405250810190613dfd9190614f5a565b030190505b919050565b6000808473ffffffffffffffffffffffffffffffffffffffff1663a9059cbb60e01b8585604051602401808373ffffffffffffffffffffffffffffffffffffffff16815260200182815260200192505050604051602081830303815290604052907bffffffffffffffffffffffffffffffffffffffffffffffffffffffff19166020820180517bffffffffffffffffffffffffffffffffffffffffffffffffffffffff83818316178352505050506040518082805190602001908083835b60208310613ee85780518252602082019150602081019050602083039250613ec5565b6001836020036101000a0380198251168184511680821785525050505050509050019150506000604051808303816000865af19150503d8060008114613f4a576040519150601f19603f3d011682016040523d82523d6000602084013e613f4f565b606091505b5091509150818015613f8f5750600081511480613f8e5750808060200190516020811015613f7c57600080fd5b81019080805190602001909291905050505b5b614001576040517f08c379a00000000000000000000000000000000000000000000000000000000081526004018080602001828103825260028152602001807f535400000000000000000000000000000000000000000000000000000000000081525060200191505060405180910390fd5b5050505050565b6000614051614016846140c1565b61401f846140c1565b61404c61402b876140c1565b614034876140c1565b896fffffffffffffffffffffffffffffffff166144fc565b61457e565b90509392505050565b6000838383604051602001808473ffffffffffffffffffffffffffffffffffffffff1660601b81526014018360020b60e81b81526003018260020b60e81b815260030193505050506040516020818303038152906040528051906020012090509392505050565b60008060008360020b126140d8578260020b6140e0565b8260020b6000035b90507ffffffffffffffffffffffffffffffffffffffffffffffffffffffffffff2761860000360020b81111561417e576040517f08c379a00000000000000000000000000000000000000000000000000000000081526004018080602001828103825260018152602001807f540000000000000000000000000000000000000000000000000000000000000081525060200191505060405180910390fd5b6000806001831614156141a2577001000000000000000000000000000000006141b4565b6ffffcb933bd6fad37aa2d162d1a5940015b70ffffffffffffffffffffffffffffffffff169050600060028316146141ee5760806ffff97272373d413259a46990580e213a8202901c90505b600060048316146142135760806ffff2e50f5f656932ef12357cf3c7fdcc8202901c90505b600060088316146142385760806fffe5caca7e10e4e61c3624eaa0941cd08202901c90505b6000601083161461425d5760806fffcb9843d60f6159c9db58835c9266448202901c90505b600060208316146142825760806fff973b41fa98c081472e6896dfb254c08202901c90505b600060408316146142a75760806fff2ea16466c96a3843ec78b326b528618202901c90505b600060808316146142cc5760806ffe5dee046a99a2a811c461f1969c30538202901c90505b60006101008316146142f25760806ffcbe86c7900a88aedcffc83b479aa3a48202901c90505b60006102008316146143185760806ff987a7253ac413176f2b074cf7815e548202901c90505b600061040083161461433e5760806ff3392b0822b70005940c7a398e4b70f38202901c90505b60006108008316146143645760806fe7159475a2c29b7443b29c7fa6e889d98202901c90505b600061100083161461438a5760806fd097f3bdfd2022b8845ad8f792aa58258202901c90505b60006120008316146143b05760806fa9f746462d870fdf8a65dc1f90e061e58202901c90505b60006140008316146143d65760806f70d869a156d2a1b890bb3df62baf32f78202901c90505b60006180008316146143fc5760806f31be135f97d08fd981231505542fcfa68202901c90505b6000620100008316146144235760806f09aa508b5b7a84e1c677de54f3e99bc98202901c90505b6000620200008316146144495760806e5d6af8dedb81196699c329225ee6048202901c90505b60006204000083161461446e5760806d2216e584f5fa1ea926041bedfe988202901c90505b6000620800008316146144915760806b048a170391f7dc42444e8fa28202901c90505b60008460020b13156144ca57807fffffffffffffffffffffffffffffffffffffffffffffffffffffffffffffffff816144c657fe5b0490505b600064010000000082816144da57fe5b06146144e75760016144ea565b60005b60ff16602082901c0192505050919050565b60008273ffffffffffffffffffffffffffffffffffffffff168473ffffffffffffffffffffffffffffffffffffffff16111561453d57828480945081955050505b614575614570836c0100000000000000000000000087870373ffffffffffffffffffffffffffffffffffffffff16614639565b614713565b90509392505050565b60008273ffffffffffffffffffffffffffffffffffffffff168473ffffffffffffffffffffffffffffffffffffffff1611156145bf57828480945081955050505b8373ffffffffffffffffffffffffffffffffffffffff16614628606060ff16846fffffffffffffffffffffffffffffffff16901b86860373ffffffffffffffffffffffffffffffffffffffff168673ffffffffffffffffffffffffffffffffffffffff16614639565b8161462f57fe5b0490509392505050565b600080600080198587098587029250828110838203039150506000811415614674576000841161466857600080fd5b8382049250505061470c565b80841161468057600080fd5b600084868809905082811182039150808303925060008586600003169050808604955080840493506001818260000304019050808302841793506000600287600302189050808702600203810290508087026002038102905080870260020381029050808702600203810290508087026002038102905080870260020381029050808502955050505050505b9392505050565b600081829150816fffffffffffffffffffffffffffffffff161461473657600080fd5b919050565b600061474e61474984615b36565b615b05565b9050808382526020820190508285602086028201111561476d57600080fd5b60005b8581101561479d57816147838882614a29565b845260208401935060208301925050600181019050614770565b5050509392505050565b60006147ba6147b584615b62565b615b05565b9050828152602081018484840111156147d257600080fd5b6147dd848285615d89565b509392505050565b6000813590506147f481615de8565b92915050565b60008151905061480981615de8565b92915050565b60008083601f84011261482157600080fd5b8235905067ffffffffffffffff81111561483a57600080fd5b60208301915083602082028301111561485257600080fd5b9250929050565b600082601f83011261486a57600080fd5b813561487a84826020860161473b565b91505092915050565b60008135905061489281615dff565b92915050565b6000815190506148a781615dff565b92915050565b6000813590506148bc81615e16565b92915050565b600082601f8301126148d357600080fd5b81356148e38482602086016147a7565b91505092915050565b6000815190506148fb81615e2d565b92915050565b60008151905061491081615e44565b92915050565b60008151905061492581615e5b565b92915050565b60006080828403121561493d57600080fd5b6149476080615b05565b9050600061495784828501614916565b600083015250602061496b84828501614916565b602083015250604061497f84828501614a3e565b604083015250606061499384828501614a3e565b60608301525092915050565b6000606082840312156149b157600080fd5b6149bb6060615b05565b905060006149cb84828501614901565b60008301525060206149df84828501614901565b60208301525060406149f384828501614a14565b60408301525092915050565b600081359050614a0e81615e72565b92915050565b600081519050614a2381615e72565b92915050565b600081359050614a3881615e89565b92915050565b600081519050614a4d81615e89565b92915050565b600060208284031215614a6557600080fd5b6000614a73848285016147e5565b91505092915050565b600060208284031215614a8e57600080fd5b6000614a9c848285016147fa565b91505092915050565b60008060408385031215614ab857600080fd5b6000614ac6858286016147e5565b9250506020614ad7858286016147e5565b9150509250929050565b600080600080600060a08688031215614af957600080fd5b6000614b07888289016147e5565b9550506020614b18888289016147e5565b945050604086013567ffffffffffffffff811115614b3557600080fd5b614b4188828901614859565b935050606086013567ffffffffffffffff811115614b5e57600080fd5b614b6a88828901614859565b925050608086013567ffffffffffffffff811115614b8757600080fd5b614b93888289016148c2565b9150509295509295909350565b600080600080600060a08688031215614bb857600080fd5b6000614bc6888289016147e5565b9550506020614bd7888289016147e5565b9450506040614be888828901614a29565b9350506060614bf988828901614a29565b925050608086013567ffffffffffffffff811115614c1657600080fd5b614c22888289016148c2565b9150509295509295909350565b60008060408385031215614c4257600080fd5b6000614c50858286016147e5565b9250506020614c6185828601614883565b9150509250929050565b60008060408385031215614c7e57600080fd5b6000614c8c858286016147e5565b9250506020614c9d85828601614a29565b9150509250929050565b600080600060608486031215614cbc57600080fd5b6000614cca868287016147e5565b9350506020614cdb86828701614a29565b9250506040614cec86828701614a29565b9150509250925092565b600080600060408486031215614d0b57600080fd5b600084013567ffffffffffffffff811115614d2557600080fd5b614d318682870161480f565b93509350506020614d44868287016149ff565b9150509250925092565b600060208284031215614d6057600080fd5b6000614d6e84828501614898565b91505092915050565b600060208284031215614d8957600080fd5b6000614d97848285016148ad565b91505092915050565b60008060008060808587031215614db657600080fd5b6000614dc4878288016148ec565b9450506020614dd5878288016148ec565b9350506040614de6878288016148ec565b9250506060614df7878288016148ec565b91505092959194509250565b600060208284031215614e1557600080fd5b6000614e2384828501614901565b91505092915050565b600060808284031215614e3e57600080fd5b6000614e4c8482850161492b565b91505092915050565b600060608284031215614e6757600080fd5b6000614e758482850161499f565b91505092915050565b60008060408385031215614e9157600080fd5b6000614e9f85828601614a14565b9250506020614eb085828601614a14565b9150509250929050565b600080600080600060a08688031215614ed257600080fd5b6000614ee088828901614a14565b9550506020614ef188828901614a3e565b9450506040614f0288828901614a3e565b9350506060614f1388828901614a14565b9250506080614f2488828901614a14565b9150509295509295909350565b600060208284031215614f4357600080fd5b6000614f5184828501614a29565b91505092915050565b600060208284031215614f6c57600080fd5b6000614f7a84828501614a3e565b91505092915050565b60008060408385031215614f9657600080fd5b6000614fa485828601614a29565b9250506020614fb5858286016147e5565b9150509250929050565b60008060008060608587031215614fd557600080fd5b6000614fe387828801614a29565b9450506020614ff4878288016147e5565b935050604085013567ffffffffffffffff81111561501157600080fd5b61501d8782880161480f565b925092505092959194509250565b6000806040838503121561503e57600080fd5b600061504c85828601614a3e565b925050602061505d85828601614a3e565b9150509250929050565b600061507383836154be565b60608301905092915050565b61508881615ce7565b82525050565b61509781615ce7565b82525050565b6150a681615c0e565b82525050565b6150b581615c0e565b82525050565b60006150c682615ba7565b6150d08185615bbf565b93506150db83615b92565b8060005b8381101561510b57816150f28882615067565b97506150fd83615bb2565b9250506001810190506150df565b5085935050505092915050565b60006151248385615bd0565b93507f07ffffffffffffffffffffffffffffffffffffffffffffffffffffffffffffff83111561515357600080fd5b602083029250615164838584615d89565b82840190509392505050565b61517981615c20565b82525050565b61518881615c2c565b82525050565b61519781615c36565b82525050565b6151a681615cf9565b82525050565b6151b581615d1d565b82525050565b6151c481615d1d565b82525050565b6151d381615d41565b82525050565b6151e281615c6f565b82525050565b6151f181615c6f565b82525050565b8082525050565b600061520b600e83615be1565b91507f416c7265616479206d696e7465640000000000000000000000000000000000006000830152602082019050919050565b600061524b600283615be1565b91507f31300000000000000000000000000000000000000000000000000000000000006000830152602082019050919050565b600061528b601583615be1565b91507f6e6f7420656e6f75676820636f6c6c61746572616c00000000000000000000006000830152602082019050919050565b60006152cb601e83615be1565b91507f6e6f7420656e6f756768206c697175696469747920617661696c61626c6500006000830152602082019050919050565b600061530b600283615be1565b91507f31310000000000000000000000000000000000000000000000000000000000006000830152602082019050919050565b600061534b600283615be1565b91507f31390000000000000000000000000000000000000000000000000000000000006000830152602082019050919050565b600061538b600e83615be1565b91507f446f6573206e6f742065786973740000000000000000000000000000000000006000830152602082019050919050565b60006153cb600183615be1565b91507f39000000000000000000000000000000000000000000000000000000000000006000830152602082019050919050565b600061540b601083615be1565b91507f436f756e746572206d69736d61746368000000000000000000000000000000006000830152602082019050919050565b600061544b601483615be1565b91507f756e64657220636f6c6c61746572616c697a65640000000000000000000000006000830152602082019050919050565b600061548b600183615be1565b91507f38000000000000000000000000000000000000000000000000000000000000006000830152602082019050919050565b6060820160008083015490506154d381615d98565b6154e0600086018261553a565b506154ea81615db2565b6154f7602086018261553a565b506001830154905061550881615d98565b615515604086018261553a565b5050505050565b61552581615c86565b82525050565b61553481615c86565b82525050565b61554381615c86565b82525050565b61555281615ca2565b82525050565b61556181615cd0565b82525050565b61557081615cd0565b82525050565b61557f81615cda565b82525050565b600060208201905061559a600083018461509d565b92915050565b60006020820190506155b5600083018461507f565b92915050565b60006040820190506155d0600083018561507f565b6155dd6020830184615558565b9392505050565b60006060820190506155f9600083018661509d565b615606602083018561509d565b6156136040830184615558565b949350505050565b6000604082019050615630600083018561509d565b61563d6020830184615558565b9392505050565b60006020820190506156596000830184615170565b92915050565b6000602082019050615674600083018461517f565b92915050565b600060208201905061568f600083018461518e565b92915050565b60006020820190506156aa600083018461519d565b92915050565b60006020820190506156c560008301846151ac565b92915050565b600060c0820190506156e0600083018a6151bb565b6156ed602083018961508e565b8181036040830152615700818789615118565b905061570f60608301866151f7565b61571c60808301856150ac565b61572960a08301846150ac565b98975050505050505050565b600060808201905061574a60008301876151bb565b818103602083015261575c81866150bb565b905061576b6040830185615567565b615778606083018461552b565b95945050505050565b600060808201905061579660008301876151bb565b6157a360208301866151e8565b6157b060408301856151e8565b6157bd606083018461552b565b95945050505050565b60006020820190506157db60008301846151ca565b92915050565b60006020820190506157f660008301846151d9565b92915050565b60006020820190508181036000830152615815816151fe565b9050919050565b600060208201905081810360008301526158358161523e565b9050919050565b600060208201905081810360008301526158558161527e565b9050919050565b60006020820190508181036000830152615875816152be565b9050919050565b60006020820190508181036000830152615895816152fe565b9050919050565b600060208201905081810360008301526158b58161533e565b9050919050565b600060208201905081810360008301526158d58161537e565b9050919050565b600060208201905081810360008301526158f5816153be565b9050919050565b60006020820190508181036000830152615915816153fe565b9050919050565b600060208201905081810360008301526159358161543e565b9050919050565b600060208201905081810360008301526159558161547e565b9050919050565b6000602082019050615971600083018461551c565b92915050565b600060608201905061598c600083018661551c565b615999602083018561551c565b6159a6604083018461551c565b949350505050565b60006080820190506159c3600083018761551c565b6159d0602083018661551c565b6159dd604083018561551c565b6159ea606083018461551c565b95945050505050565b6000602082019050615a086000830184615549565b92915050565b6000602082019050615a236000830184615558565b92915050565b6000604082019050615a3e6000830185615558565b615a4b602083018461509d565b9392505050565b6000606082019050615a676000830186615558565b615a74602083018561551c565b615a81604083018461509d565b949350505050565b6000606082019050615a9e6000830186615567565b615aab602083018561552b565b615ab860408301846151e8565b949350505050565b6000608082019050615ad56000830187615567565b615ae26020830186615576565b615aef604083018561552b565b615afc60608301846151e8565b95945050505050565b6000604051905081810181811067ffffffffffffffff82111715615b2c57615b2b615dcc565b5b8060405250919050565b600067ffffffffffffffff821115615b5157615b50615dcc565b5b602082029050602081019050919050565b600067ffffffffffffffff821115615b7d57615b7c615dcc565b5b601f19601f8301169050602081019050919050565b60008190508160005260206000209050919050565b600081549050919050565b6000600282019050919050565b600082825260208201905092915050565b600082825260208201905092915050565b600082825260208201905092915050565b60006fffffffffffffffffffffffffffffffff82169050919050565b6000615c1982615cb0565b9050919050565b60008115159050919050565b6000819050919050565b60007fffffffff0000000000000000000000000000000000000000000000000000000082169050919050565b600081600f0b9050919050565b60008160020b9050919050565b6000819050919050565b60006fffffffffffffffffffffffffffffffff82169050919050565b600061ffff82169050919050565b600073ffffffffffffffffffffffffffffffffffffffff82169050919050565b6000819050919050565b600060ff82169050919050565b6000615cf282615d65565b9050919050565b6000615d0482615d0b565b9050919050565b6000615d1682615cb0565b9050919050565b6000615d2882615d2f565b9050919050565b6000615d3a82615cb0565b9050919050565b6000615d4c82615d53565b9050919050565b6000615d5e82615cb0565b9050919050565b6000615d7082615d77565b9050919050565b6000615d8282615cb0565b9050919050565b82818337600083830152505050565b6000615dab615da683615dce565b615bf2565b9050919050565b6000615dc5615dc083615ddb565b615bf2565b9050919050565bfe5b60008160001c9050919050565b60008160801c9050919050565b615df181615c0e565b8114615dfc57600080fd5b50565b615e0881615c20565b8114615e1357600080fd5b50565b615e1f81615c36565b8114615e2a57600080fd5b50565b615e3681615c62565b8114615e4157600080fd5b50565b615e4d81615c6f565b8114615e5857600080fd5b50565b615e6481615c7c565b8114615e6f57600080fd5b50565b615e7b81615c86565b8114615e8657600080fd5b50565b615e9281615cd0565b8114615e9d57600080fd5b5056fe4f776e61626c653a206e6577206f776e657220697320746865207a65726f2061646472657373a26469706673582212204edcc8f99f7c2022e0d782e506a1095849ed501b393d0bab288876786b88fa0564736f6c63430007060033",
  "linkReferences": {
    "contracts/libraries/PanopticHealth.sol": {
      "PanopticHealth": [
        {
          "length": 20,
          "start": 6163
        },
        {
          "length": 20,
          "start": 8345
        }
      ]
    },
    "contracts/libraries/PanopticMath.sol": {
      "PanopticMath": [
        {
          "length": 20,
          "start": 9766
        },
        {
          "length": 20,
          "start": 9952
        },
        {
          "length": 20,
          "start": 15144
        },
        {
          "length": 20,
          "start": 15536
        }
      ]
    }
  },
  "deployedLinkReferences": {
    "contracts/libraries/PanopticHealth.sol": {
      "PanopticHealth": [
        {
          "length": 20,
          "start": 5337
        },
        {
          "length": 20,
          "start": 7519
        }
      ]
    },
    "contracts/libraries/PanopticMath.sol": {
      "PanopticMath": [
        {
          "length": 20,
          "start": 8940
        },
        {
          "length": 20,
          "start": 9126
        },
        {
          "length": 20,
          "start": 14318
        },
        {
          "length": 20,
          "start": 14710
        }
      ]
    }
  }
}