{
  "_format": "hh-sol-artifact-1",
  "contractName": "OptionEncoding",
  "sourceName": "contracts/libraries/OptionEncoding.sol",
  "abi": [
    {
      "inputs": [
        {
          "internalType": "uint256",
          "name": "oldTokenId",
          "type": "uint256"
        },
        {
          "internalType": "uint256",
          "name": "newTokenId",
          "type": "uint256"
        }
      ],
      "name": "checkRollTokens",
      "outputs": [
        {
          "internalType": "bool",
          "name": "valid",
          "type": "bool"
        }
      ],
      "stateMutability": "pure",
      "type": "function"
    },
    {
      "inputs": [
        {
          "internalType": "uint256",
          "name": "id",
          "type": "uint256"
        }
      ],
      "name": "decodeID",
      "outputs": [
        {
          "internalType": "uint80",
          "name": "pool_id",
          "type": "uint80"
        },
        {
          "components": [
            {
              "internalType": "int24",
              "name": "strike",
              "type": "int24"
            },
            {
              "internalType": "uint16",
              "name": "width",
              "type": "uint16"
            },
            {
              "internalType": "uint8",
              "name": "riskPartner",
              "type": "uint8"
            },
            {
              "internalType": "uint8",
              "name": "tokenType",
              "type": "uint8"
            },
            {
              "internalType": "uint8",
              "name": "long",
              "type": "uint8"
            },
            {
              "internalType": "uint8",
              "name": "ratio",
              "type": "uint8"
            }
          ],
          "internalType": "struct OptionEncoding.OptionConfig[]",
          "name": "optionData",
          "type": "tuple[]"
        }
      ],
      "stateMutability": "pure",
      "type": "function"
    },
    {
      "inputs": [
        {
          "components": [
            {
              "internalType": "int24",
              "name": "strike",
              "type": "int24"
            },
            {
              "internalType": "uint16",
              "name": "width",
              "type": "uint16"
            },
            {
              "internalType": "uint8",
              "name": "riskPartner",
              "type": "uint8"
            },
            {
              "internalType": "uint8",
              "name": "tokenType",
              "type": "uint8"
            },
            {
              "internalType": "uint8",
              "name": "long",
              "type": "uint8"
            },
            {
              "internalType": "uint8",
              "name": "ratio",
              "type": "uint8"
            }
          ],
          "internalType": "struct OptionEncoding.OptionConfig[]",
          "name": "optionData",
          "type": "tuple[]"
        },
        {
          "internalType": "uint80",
          "name": "pool_id",
          "type": "uint80"
        }
      ],
      "name": "encodeID",
      "outputs": [
        {
          "internalType": "uint256",
          "name": "id",
          "type": "uint256"
        }
      ],
      "stateMutability": "pure",
      "type": "function"
    },
    {
      "inputs": [
        {
          "internalType": "uint256",
          "name": "tokenId",
          "type": "uint256"
        }
      ],
      "name": "validateTokenId",
      "outputs": [
        {
          "internalType": "bool",
          "name": "valid",
          "type": "bool"
        }
      ],
      "stateMutability": "pure",
      "type": "function"
    }
  ],
  "bytecode": "0x6111cb610026600b82828239805160001a60731461001957fe5b30600052607381538281f3fe73000000000000000000000000000000000000000030146080604052600436106100565760003560e01c80631fa2ea651461005b5780632a5a6e5b1461008b57806334600901146100bb5780635c48c598146100eb575b600080fd5b61007560048036038101906100709190610b1b565b61011c565b6040516100829190610fda565b60405180910390f35b6100a560048036038101906100a09190610b98565b6101e3565b6040516100b29190610edf565b60405180910390f35b6100d560048036038101906100d09190610b6f565b6102da565b6040516100e29190610edf565b60405180910390f35b61010560048036038101906101009190610b6f565b61066b565b604051610113929190610ff5565b60405180910390f35b60008080600090505b84518110156101ca57600085828151811061013c57fe5b60200260200101519050602882029250607c8301816020015161ffff16901b8401935060648301816000015162ffffff16901b8401935060628301816040015160ff16901b8401935060618301816060015160ff16901b8401935060608301816080015160ff16901b84019350605082600402018160a0015160ff16901b8401935050806001019050610125565b508269ffffffffffffffffffff16820191505092915050565b60006101ee836102da565b80156101ff57506101fe826102da565b5b801561022357508169ffffffffffffffffffff168369ffffffffffffffffffff1614155b61023057600090506102d4565b60005b60048160ff1610156102ce5761024b836001836107fa565b610257856001846107fa565b146102665760009150506102d4565b6000610274856002846107fa565b14158061028d5750600061028a846002846107fa565b14155b1561029c5760009150506102d4565b6102a8836003836107fa565b6102b4856003846107fa565b146102c35760009150506102d4565b806001019050610233565b50600190505b92915050565b6000808269ffffffffffffffffffff16141561032b576040517f08c379a000000000000000000000000000000000000000000000000000000000815260040161032290610f5a565b60405180910390fd5b600061033a83600160006107fa565b141561037b576040517f08c379a000000000000000000000000000000000000000000000000000000000815260040161037290610fba565b60405180910390fd5b60005b60048160ff161015610661576000610398846001846107fa565b14156104125760006001820190505b60048160ff16101561040c5760006103c1856001846107fa565b14610401576040517f08c379a00000000000000000000000000000000000000000000000000000000081526004016103f890610f7a565b60405180910390fd5b8060010190506103a7565b50610462565b6000610420846006846107fa565b1415610461576040517f08c379a000000000000000000000000000000000000000000000000000000000815260040161045890610f3a565b60405180910390fd5b5b7ffffffffffffffffffffffffffffffffffffffffffffffffffffffffffff2761860000360020b610495846005846107fa565b60020b141580156104d757507ffffffffffffffffffffffffffffffffffffffffffffffffffffffffffff2761860020b6104d1846005846107fa565b60020b14155b610516576040517f08c379a000000000000000000000000000000000000000000000000000000000815260040161050d90610f9a565b60405180910390fd5b610fff610525846006846107fa565b141561057a576000610539846005846107fa565b14610579576040517f08c379a000000000000000000000000000000000000000000000000000000000815260040161057090610f1a565b60405180910390fd5b5b8060ff1661058a846004846107fa565b111561065657600061059e846004846107fa565b90506105ac846001846107fa565b6105b8856001846107fa565b1480156105da57506105cc846003846107fa565b6105d8856003846107fa565b145b80156105f357508160ff166105f1856004846107fa565b145b80156106155750610606846002846107fa565b610612856002846107fa565b14155b610654576040517f08c379a000000000000000000000000000000000000000000000000000000000815260040161064b90610efa565b60405180910390fd5b505b80600101905061037e565b5060019050919050565b60006060829150600467ffffffffffffffff8111801561068a57600080fd5b506040519080825280602002602001820160405280156106c457816020015b6106b1610937565b8152602001906001900390816106a95790505b509050605083901c925060005b600481101561071b57601084816106e457fe5b068282815181106106f157fe5b602002602001015160a0019060ff16908160ff1681525050600484901c93508060010190506106d1565b5060005b60048110156107f457600082828151811061073657fe5b602002602001015190506002858161074a57fe5b06816080019060ff16908160ff1681525050600185901c94506002858161076d57fe5b06816060019060ff16908160ff1681525050600185901c94506004858161079057fe5b06816040019060ff16908160ff1681525050600285901c945084816000019060020b908160020b81525050601885901c945061100085816107cd57fe5b06816020019061ffff16908161ffff1681525050600c85901c94505080600101905061071f565b50915091565b6000808360ff16141561081b578369ffffffffffffffffffff169050610930565b60018360ff1614156108485760106004830260500160ff1685901c8161083d57fe5b0660ff169050610930565b60028360ff1614156108755760026028830260600160ff1685901c8161086a57fe5b0660ff169050610930565b60038360ff1614156108a55760026001602884026060010160ff1685901c8161089a57fe5b0660ff169050610930565b60048360ff1614156108d55760046002602884026060010160ff1685901c816108ca57fe5b0660ff169050610930565b60058360ff1614156108fd576004602883026060010160ff1684901c62ffffff169050610930565b60068360ff16141561092f57611000601c602884026060010160ff1685901c8161092357fe5b0661ffff169050610930565b5b9392505050565b6040518060c00160405280600060020b8152602001600061ffff168152602001600060ff168152602001600060ff168152602001600060ff168152602001600060ff1681525090565b600061099361098e84611056565b611025565b905080838252602082019050828560c08602820111156109b257600080fd5b60005b858110156109e257816109c88882610a2b565b845260208401935060c083019250506001810190506109b5565b5050509392505050565b600082601f8301126109fd57600080fd5b8135610a0d848260208601610980565b91505092915050565b600081359050610a2581611122565b92915050565b600060c08284031215610a3d57600080fd5b610a4760c0611025565b90506000610a5784828501610a16565b6000830152506020610a6b84828501610ac7565b6020830152506040610a7f84828501610af1565b6040830152506060610a9384828501610af1565b6060830152506080610aa784828501610af1565b60808301525060a0610abb84828501610af1565b60a08301525092915050565b600081359050610ad681611139565b92915050565b600081359050610aeb81611150565b92915050565b600081359050610b0081611167565b92915050565b600081359050610b158161117e565b92915050565b60008060408385031215610b2e57600080fd5b600083013567ffffffffffffffff811115610b4857600080fd5b610b54858286016109ec565b9250506020610b6585828601610b06565b9150509250929050565b600060208284031215610b8157600080fd5b6000610b8f84828501610adc565b91505092915050565b60008060408385031215610bab57600080fd5b6000610bb985828601610adc565b9250506020610bca85828601610adc565b9150509250929050565b6000610be08383610e28565b60c08301905092915050565b6000610bf782611092565b610c0181856110aa565b9350610c0c83611082565b8060005b83811015610c3d578151610c248882610bd4565b9750610c2f8361109d565b925050600181019050610c10565b5085935050505092915050565b610c53816110cc565b82525050565b610c62816110d8565b82525050565b6000610c75601a836110bb565b91507f5346504d3a20696e76616c6964207269736b20706172746e65720000000000006000830152602082019050919050565b6000610cb5601c836110bb565b91507f5346504d3a20696e76616c696420737472696b65202b207769647468000000006000830152602082019050919050565b6000610cf56013836110bb565b91507f5346504d3a20696e76616c6964207769647468000000000000000000000000006000830152602082019050919050565b6000610d356014836110bb565b91507f5346504d3a20696e76616c696420706f6f6c3d300000000000000000000000006000830152602082019050919050565b6000610d756013836110bb565b91507f5346504d3a20696e76616c696420726174696f000000000000000000000000006000830152602082019050919050565b6000610db56014836110bb565b91507f5346504d3a20696e76616c696420737472696b650000000000000000000000006000830152602082019050919050565b6000610df56020836110bb565b91507f5346504d3a20696e76616c696420726174696f20617420706f736974696f6e306000830152602082019050919050565b60c082016000820151610e3e6000850182610c59565b506020820151610e516020850182610ea3565b506040820151610e646040850182610ed0565b506060820151610e776060850182610ed0565b506080820151610e8a6080850182610ed0565b5060a0820151610e9d60a0850182610ed0565b50505050565b610eac816110e5565b82525050565b610ebb816110f3565b82525050565b610eca8161110a565b82525050565b610ed9816110fd565b82525050565b6000602082019050610ef46000830184610c4a565b92915050565b60006020820190508181036000830152610f1381610c68565b9050919050565b60006020820190508181036000830152610f3381610ca8565b9050919050565b60006020820190508181036000830152610f5381610ce8565b9050919050565b60006020820190508181036000830152610f7381610d28565b9050919050565b60006020820190508181036000830152610f9381610d68565b9050919050565b60006020820190508181036000830152610fb381610da8565b9050919050565b60006020820190508181036000830152610fd381610de8565b9050919050565b6000602082019050610fef6000830184610eb2565b92915050565b600060408201905061100a6000830185610ec1565b818103602083015261101c8184610bec565b90509392505050565b6000604051905081810181811067ffffffffffffffff8211171561104c5761104b611120565b5b8060405250919050565b600067ffffffffffffffff82111561107157611070611120565b5b602082029050602081019050919050565b6000819050602082019050919050565b600081519050919050565b6000602082019050919050565b600082825260208201905092915050565b600082825260208201905092915050565b60008115159050919050565b60008160020b9050919050565b600061ffff82169050919050565b6000819050919050565b600060ff82169050919050565b600069ffffffffffffffffffff82169050919050565bfe5b61112b816110d8565b811461113657600080fd5b50565b611142816110e5565b811461114d57600080fd5b50565b611159816110f3565b811461116457600080fd5b50565b611170816110fd565b811461117b57600080fd5b50565b6111878161110a565b811461119257600080fd5b5056fea2646970667358221220d340776c9d017d5f04ecd211e435178ee48cc0374331623f8722b47b4b33deea64736f6c63430007060033",
  "linkReferences": {},
  "deployedLinkReferences": {}
}