{
  "_format": "hh-sol-artifact-1",
  "contractName": "MockOptionEncoding",
  "sourceName": "contracts/mocks/MockOptionEncoding.sol",
  "abi": [
    {
      "inputs": [
        {
          "internalType": "uint256",
          "name": "id",
          "type": "uint256"
        }
      ],
      "name": "decodeID",
      "outputs": [
        {
          "internalType": "uint80",
          "name": "pool_id",
          "type": "uint80"
        },
        {
          "components": [
            {
              "internalType": "int24",
              "name": "strike",
              "type": "int24"
            },
            {
              "internalType": "uint16",
              "name": "width",
              "type": "uint16"
            },
            {
              "internalType": "uint8",
              "name": "riskPartner",
              "type": "uint8"
            },
            {
              "internalType": "uint8",
              "name": "tokenType",
              "type": "uint8"
            },
            {
              "internalType": "uint8",
              "name": "long",
              "type": "uint8"
            },
            {
              "internalType": "uint8",
              "name": "ratio",
              "type": "uint8"
            }
          ],
          "internalType": "struct OptionEncoding.OptionConfig[]",
          "name": "optionData",
          "type": "tuple[]"
        }
      ],
      "stateMutability": "pure",
      "type": "function"
    },
    {
      "inputs": [
        {
          "components": [
            {
              "internalType": "int24",
              "name": "strike",
              "type": "int24"
            },
            {
              "internalType": "uint16",
              "name": "width",
              "type": "uint16"
            },
            {
              "internalType": "uint8",
              "name": "riskPartner",
              "type": "uint8"
            },
            {
              "internalType": "uint8",
              "name": "tokenType",
              "type": "uint8"
            },
            {
              "internalType": "uint8",
              "name": "long",
              "type": "uint8"
            },
            {
              "internalType": "uint8",
              "name": "ratio",
              "type": "uint8"
            }
          ],
          "internalType": "struct OptionEncoding.OptionConfig[]",
          "name": "optionData",
          "type": "tuple[]"
        },
        {
          "internalType": "uint80",
          "name": "pool_id",
          "type": "uint80"
        }
      ],
      "name": "encodeID",
      "outputs": [
        {
          "internalType": "uint256",
          "name": "id",
          "type": "uint256"
        }
      ],
      "stateMutability": "pure",
      "type": "function"
    }
  ],
  "bytecode": "0x608060405234801561001057600080fd5b50610aa0806100206000396000f3fe608060405234801561001057600080fd5b50600436106100365760003560e01c806319d6dcd61461003b5780635c48c5981461006b575b600080fd5b610055600480360381019061005091906104fe565b61009c565b60405161006291906108bb565b60405180910390f35b61008560048036038101906100809190610552565b61012f565b6040516100939291906108d6565b60405180910390f35b600073__$547ff566aec9f2b320184eee276965b8fa$__631fa2ea6584846040518363ffffffff1660e01b81526004016100d7929190610870565b60206040518083038186803b1580156100ef57600080fd5b505af4158015610103573d6000803e3d6000fd5b505050506040513d601f19601f82011682018060405250810190610127919061057b565b905092915050565b6000606073__$547ff566aec9f2b320184eee276965b8fa$__635c48c598846040518263ffffffff1660e01b815260040161016a91906108a0565b60006040518083038186803b15801561018257600080fd5b505af4158015610196573d6000803e3d6000fd5b505050506040513d6000823e3d601f19601f820116820180604052508101906101bf91906105a4565b91509150915091565b60006101db6101d684610937565b610906565b905080838252602082019050828560c08602820111156101fa57600080fd5b60005b8581101561022a5781610210888261031e565b845260208401935060c083019250506001810190506101fd565b5050509392505050565b600061024761024284610937565b610906565b905080838252602082019050828560c086028201111561026657600080fd5b60005b85811015610296578161027c88826103ba565b845260208401935060c08301925050600181019050610269565b5050509392505050565b600082601f8301126102b157600080fd5b81356102c18482602086016101c8565b91505092915050565b600082601f8301126102db57600080fd5b81516102eb848260208601610234565b91505092915050565b600081359050610303816109f7565b92915050565b600081519050610318816109f7565b92915050565b600060c0828403121561033057600080fd5b61033a60c0610906565b9050600061034a848285016102f4565b600083015250602061035e84828501610456565b6020830152506040610372848285016104aa565b6040830152506060610386848285016104aa565b606083015250608061039a848285016104aa565b60808301525060a06103ae848285016104aa565b60a08301525092915050565b600060c082840312156103cc57600080fd5b6103d660c0610906565b905060006103e684828501610309565b60008301525060206103fa8482850161046b565b602083015250604061040e848285016104e9565b6040830152506060610422848285016104e9565b6060830152506080610436848285016104e9565b60808301525060a061044a848285016104e9565b60a08301525092915050565b60008135905061046581610a0e565b92915050565b60008151905061047a81610a0e565b92915050565b60008135905061048f81610a25565b92915050565b6000815190506104a481610a25565b92915050565b6000813590506104b981610a3c565b92915050565b6000813590506104ce81610a53565b92915050565b6000815190506104e381610a53565b92915050565b6000815190506104f881610a3c565b92915050565b6000806040838503121561051157600080fd5b600083013567ffffffffffffffff81111561052b57600080fd5b610537858286016102a0565b9250506020610548858286016104bf565b9150509250929050565b60006020828403121561056457600080fd5b600061057284828501610480565b91505092915050565b60006020828403121561058d57600080fd5b600061059b84828501610495565b91505092915050565b600080604083850312156105b757600080fd5b60006105c5858286016104d4565b925050602083015167ffffffffffffffff8111156105e257600080fd5b6105ee858286016102ca565b9150509250929050565b60006106048383610702565b60c08301905092915050565b600061061c838361077d565b60c08301905092915050565b600061063382610973565b61063d818561098b565b935061064883610963565b8060005b8381101561067957815161066088826105f8565b975061066b8361097e565b92505060018101905061064c565b5085935050505092915050565b600061069182610973565b61069b818561099c565b93506106a683610963565b8060005b838110156106d75781516106be8882610610565b97506106c98361097e565b9250506001810190506106aa565b5085935050505092915050565b6106ed816109ad565b82525050565b6106fc816109ad565b82525050565b60c08201600082015161071860008501826106e4565b50602082015161072b60208501826107f8565b50604082015161073e6040850182610852565b5060608201516107516060850182610852565b5060808201516107646080850182610852565b5060a082015161077760a0850182610852565b50505050565b60c08201600082015161079360008501826106f3565b5060208201516107a66020850182610807565b5060408201516107b96040850182610861565b5060608201516107cc6060850182610861565b5060808201516107df6080850182610861565b5060a08201516107f260a0850182610861565b50505050565b610801816109ba565b82525050565b610810816109ba565b82525050565b61081f816109c8565b82525050565b61082e816109c8565b82525050565b61083d816109df565b82525050565b61084c816109df565b82525050565b61085b816109d2565b82525050565b61086a816109d2565b82525050565b6000604082019050818103600083015261088a8185610686565b90506108996020830184610843565b9392505050565b60006020820190506108b56000830184610825565b92915050565b60006020820190506108d06000830184610816565b92915050565b60006040820190506108eb6000830185610834565b81810360208301526108fd8184610628565b90509392505050565b6000604051905081810181811067ffffffffffffffff8211171561092d5761092c6109f5565b5b8060405250919050565b600067ffffffffffffffff821115610952576109516109f5565b5b602082029050602081019050919050565b6000819050602082019050919050565b600081519050919050565b6000602082019050919050565b600082825260208201905092915050565b600082825260208201905092915050565b60008160020b9050919050565b600061ffff82169050919050565b6000819050919050565b600060ff82169050919050565b600069ffffffffffffffffffff82169050919050565bfe5b610a00816109ad565b8114610a0b57600080fd5b50565b610a17816109ba565b8114610a2257600080fd5b50565b610a2e816109c8565b8114610a3957600080fd5b50565b610a45816109d2565b8114610a5057600080fd5b50565b610a5c816109df565b8114610a6757600080fd5b5056fea2646970667358221220c96ad969ecdb5035533de5829de07e188afb2b5a4b5bc0a6f726147fd21c964d64736f6c63430007060033",
  "linkReferences": {
    "contracts/libraries/OptionEncoding.sol": {
      "OptionEncoding": [
        {
          "length": 20,
          "start": 192
        },
        {
          "length": 20,
          "start": 341
        }
      ]
    }
  },
  "deployedLinkReferences": {
    "contracts/libraries/OptionEncoding.sol": {
      "OptionEncoding": [
        {
          "length": 20,
          "start": 160
        },
        {
          "length": 20,
          "start": 309
        }
      ]
    }
  }
}