{
  "_format": "hh-sol-artifact-1",
  "contractName": "MockPanopticHealth",
  "sourceName": "contracts/mocks/MockPanopticHealth.sol",
  "abi": [
    {
      "inputs": [
        {
          "internalType": "contract IUniswapV3Pool",
          "name": "pool",
          "type": "address"
        },
        {
          "internalType": "address",
          "name": "user",
          "type": "address"
        },
        {
          "internalType": "uint256",
          "name": "positionId",
          "type": "uint256"
        },
        {
          "internalType": "uint128",
          "name": "userPositionBalance",
          "type": "uint128"
        },
        {
          "internalType": "address",
          "name": "receiptToken0",
          "type": "address"
        },
        {
          "internalType": "address",
          "name": "receiptToken1",
          "type": "address"
        }
      ],
      "name": "checkHealth",
      "outputs": [
        {
          "internalType": "enum PanopticHealth.UserStatus",
          "name": "callStatus",
          "type": "uint8"
        },
        {
          "internalType": "enum PanopticHealth.UserStatus",
          "name": "putStatus",
          "type": "uint8"
        },
        {
          "internalType": "uint256",
          "name": "token0Required",
          "type": "uint256"
        },
        {
          "internalType": "uint256",
          "name": "token1Required",
          "type": "uint256"
        }
      ],
      "stateMutability": "view",
      "type": "function"
    }
  ],
  "bytecode": "0x608060405234801561001057600080fd5b506106a5806100206000396000f3fe608060405234801561001057600080fd5b506004361061002b5760003560e01c80637d51925914610030575b600080fd5b6100f8600480360360c081101561004657600080fd5b81019080803573ffffffffffffffffffffffffffffffffffffffff169060200190929190803573ffffffffffffffffffffffffffffffffffffffff1690602001909291908035906020019092919080356fffffffffffffffffffffffffffffffff169060200190929190803573ffffffffffffffffffffffffffffffffffffffff169060200190929190803573ffffffffffffffffffffffffffffffffffffffff169060200190929190505050610139565b6040518085600281111561010857fe5b815260200184600281111561011957fe5b815260200183815260200182815260200194505050505060405180910390f35b60008060008060008060008060008e73ffffffffffffffffffffffffffffffffffffffff1663d0c93a7c6040518163ffffffff1660e01b815260040160206040518083038186803b15801561018d57600080fd5b505afa1580156101a1573d6000803e3d6000fd5b505050506040513d60208110156101b757600080fd5b8101908080519060200190929190505050905060008f73ffffffffffffffffffffffffffffffffffffffff16633850c7bd6040518163ffffffff1660e01b815260040160e06040518083038186803b15801561021257600080fd5b505afa158015610226573d6000803e3d6000fd5b505050506040513d60e081101561023c57600080fd5b8101908080519060200190929190805190602001909291908051906020019092919080519060200190929190805190602001909291908051906020019092919080519060200190929190505050505050505091505060008d6fffffffffffffffffffffffffffffffff1611610319576040517f08c379a000000000000000000000000000000000000000000000000000000000815260040180806020018281038252601a8152602001807f4e6f6e206578697374696e67207573657220706f736974696f6e00000000000081525060200191505060405180910390fd5b73__$5e4b75047fcf4cf95f88a7d3ca82afce95$__635d499b298f8f85856040518563ffffffff1660e01b815260040180858152602001846fffffffffffffffffffffffffffffffff1681526020018360020b81526020018260020b8152602001945050505050604080518083038186803b15801561039757600080fd5b505af41580156103ab573d6000803e3d6000fd5b505050506040513d60408110156103c157600080fd5b810190808051906020019092919080519060200190929190505050809650819750505050508973ffffffffffffffffffffffffffffffffffffffff166370a082318e6040518263ffffffff1660e01b8152600401808273ffffffffffffffffffffffffffffffffffffffff16815260200191505060206040518083038186803b15801561044d57600080fd5b505afa158015610461573d6000803e3d6000fd5b505050506040513d602081101561047757600080fd5b81019080805190602001909291905050508973ffffffffffffffffffffffffffffffffffffffff166370a082318f6040518263ffffffff1660e01b8152600401808273ffffffffffffffffffffffffffffffffffffffff16815260200191505060206040518083038186803b1580156104ef57600080fd5b505afa158015610503573d6000803e3d6000fd5b505050506040513d602081101561051957600080fd5b8101908080519060200190929190505050809250819350505073__$5e4b75047fcf4cf95f88a7d3ca82afce95$__63a745da6583866040518363ffffffff1660e01b8152600401808381526020018281526020019250505060206040518083038186803b15801561058957600080fd5b505af415801561059d573d6000803e3d6000fd5b505050506040513d60208110156105b357600080fd5b810190808051906020019092919050505073__$5e4b75047fcf4cf95f88a7d3ca82afce95$__63a745da6583866040518363ffffffff1660e01b8152600401808381526020018281526020019250505060206040518083038186803b15801561061b57600080fd5b505af415801561062f573d6000803e3d6000fd5b505050506040513d602081101561064557600080fd5b8101908080519060200190929190505050809850819950505050505050965096509650969250505056fea26469706673582212203b776270b30ff6c54e780ef8b15d09ab1c6b81719a01088a6d35c06eefdcb4ba64736f6c63430007060033",
  "linkReferences": {
    "contracts/libraries/PanopticHealth.sol": {
      "PanopticHealth": [
        {
          "length": 20,
          "start": 827
        },
        {
          "length": 20,
          "start": 1364
        },
        {
          "length": 20,
          "start": 1510
        }
      ]
    }
  },
  "deployedLinkReferences": {
    "contracts/libraries/PanopticHealth.sol": {
      "PanopticHealth": [
        {
          "length": 20,
          "start": 795
        },
        {
          "length": 20,
          "start": 1332
        },
        {
          "length": 20,
          "start": 1478
        }
      ]
    }
  }
}