{
  "_format": "hh-sol-artifact-1",
  "contractName": "PanopticHealth",
  "sourceName": "contracts/libraries/PanopticHealth.sol",
  "abi": [
    {
      "inputs": [],
      "name": "BUY_COLLATERAL_RATIO",
      "outputs": [
        {
          "internalType": "uint256",
          "name": "",
          "type": "uint256"
        }
      ],
      "stateMutability": "view",
      "type": "function"
    },
    {
      "inputs": [],
      "name": "COLLATERAL_MARGIN_RATIO",
      "outputs": [
        {
          "internalType": "uint256",
          "name": "",
          "type": "uint256"
        }
      ],
      "stateMutability": "view",
      "type": "function"
    },
    {
      "inputs": [],
      "name": "DECIMALS",
      "outputs": [
        {
          "internalType": "uint256",
          "name": "",
          "type": "uint256"
        }
      ],
      "stateMutability": "view",
      "type": "function"
    },
    {
      "inputs": [],
      "name": "SELL_COLLATERAL_RATIO",
      "outputs": [
        {
          "internalType": "uint256",
          "name": "",
          "type": "uint256"
        }
      ],
      "stateMutability": "view",
      "type": "function"
    },
    {
      "inputs": [
        {
          "internalType": "uint8",
          "name": "long",
          "type": "uint8"
        },
        {
          "internalType": "uint256",
          "name": "notional",
          "type": "uint256"
        }
      ],
      "name": "calcPartnerRequired",
      "outputs": [
        {
          "internalType": "uint256",
          "name": "required",
          "type": "uint256"
        }
      ],
      "stateMutability": "pure",
      "type": "function"
    },
    {
      "inputs": [
        {
          "internalType": "uint256",
          "name": "positionId",
          "type": "uint256"
        },
        {
          "internalType": "uint8",
          "name": "index",
          "type": "uint8"
        },
        {
          "internalType": "uint128",
          "name": "notionalValue",
          "type": "uint128"
        },
        {
          "internalType": "int24",
          "name": "currentTick",
          "type": "int24"
        },
        {
          "internalType": "uint8",
          "name": "tokenType",
          "type": "uint8"
        }
      ],
      "name": "calcRequired",
      "outputs": [
        {
          "internalType": "uint256",
          "name": "required",
          "type": "uint256"
        }
      ],
      "stateMutability": "pure",
      "type": "function"
    },
    {
      "inputs": [
        {
          "internalType": "uint256",
          "name": "positionId",
          "type": "uint256"
        },
        {
          "internalType": "uint128",
          "name": "numberOfContracts",
          "type": "uint128"
        },
        {
          "internalType": "int24",
          "name": "tickSpacing",
          "type": "int24"
        },
        {
          "internalType": "int24",
          "name": "tick",
          "type": "int24"
        }
      ],
      "name": "getPositionCollateralAtTick",
      "outputs": [
        {
          "internalType": "uint256",
          "name": "token0Required",
          "type": "uint256"
        },
        {
          "internalType": "uint256",
          "name": "token1Required",
          "type": "uint256"
        }
      ],
      "stateMutability": "view",
      "type": "function"
    },
    {
      "inputs": [
        {
          "internalType": "uint256",
          "name": "balance",
          "type": "uint256"
        },
        {
          "internalType": "uint256",
          "name": "required",
          "type": "uint256"
        }
      ],
      "name": "getStatus",
      "outputs": [
        {
          "internalType": "enum PanopticHealth.UserStatus",
          "name": "status",
          "type": "PanopticHealth.UserStatus"
        }
      ],
      "stateMutability": "pure",
      "type": "function"
    }
  ],
  "bytecode": "0x611ba8610026600b82828239805160001a60731461001957fe5b30600052607381538281f3fe73000000000000000000000000000000000000000030146080604052600436106100a85760003560e01c80635d499b29116100705780635d499b2914610168578063644b8c4c14610199578063a745da65146101c9578063e9ba8662146101f9578063ebc693df14610217576100a8565b80630a98e5e6146100ad5780630fdfcc80146100cb5780632e0f2625146100fc57806344ed4faf1461011a5780634f495c4614610138575b600080fd5b6100b561024a565b6040516100c29190611954565b60405180910390f35b6100e560048036038101906100e091906114cb565b610250565b6040516100f392919061196f565b60405180910390f35b6101046102ff565b6040516101119190611954565b60405180910390f35b610122610305565b60405161012f9190611954565b60405180910390f35b610152600480360381019061014d9190611778565b61030b565b60405161015f9190611954565b60405180910390f35b610182600480360381019061017d9190611662565b61032b565b60405161019092919061196f565b60405180910390f35b6101b360048036038101906101ae9190611701565b610425565b6040516101c09190611954565b60405180910390f35b6101e360048036038101906101de91906116c5565b61070e565b6040516101f0919061188b565b60405180910390f35b61020161074b565b60405161020e9190611954565b60405180910390f35b610231600480360381019061022c91906114cb565b610751565b60405161024194939291906118a6565b60405180910390f35b6103e881565b6000806000806000806102688d8d8d8d8d8d8d610751565b935093509350935060028081111561027c57fe5b84600281111561028857fe5b1480156102aa575060028081111561029c57fe5b8360028111156102a857fe5b145b6102e9576040517f08c379a00000000000000000000000000000000000000000000000000000000081526004016102e090611934565b60405180910390fd5b8181955095505050505097509795505050505050565b61271081565b6107d081565b600060018360ff161461031e5781610323565b816000035b905092915050565b60008060005b60048160ff16101561041b57600061034b886001846108bd565b14156103565761041b565b6000806103658989858a6109fa565b9150915060006103778a6003866108bd565b905060008460ff1661038b8c6004886108bd565b146103ce576103c961039f8c6002886108bd565b60018460ff16146103b057856103b2565b845b6fffffffffffffffffffffffffffffffff1661030b565b6103ee565b6103ed8b8660018560ff16146103e457866103e6565b855b8b86610425565b5b905060008260ff16141561040657808701965061040c565b80860195505b50505050806001019050610331565b5094509492505050565b600080610434876005886108bd565b90506001610444886002896108bd565b1415610473576127106103e8866fffffffffffffffffffffffffffffffff16028161046b57fe5b049150610704565b8060020b8460020b13801561048b575060018360ff16145b806104aa57508060020b8460020b1280156104a9575060008360ff16145b5b156104d8576127106107d0866fffffffffffffffffffffffffffffffff1602816104d057fe5b049150610703565b600060018460ff16146105a05761059b73__$c3f55a3e7e4b410bf199cd5e3e47df218f$__6352ca82ee8785036002027ffffffffffffffffffffffffffffffffffffffffffffffffffffffffffff276186040518363ffffffff1660e01b81526004016105469291906118eb565b60206040518083038186803b15801561055e57600080fd5b505af4158015610572573d6000803e3d6000fd5b505050506040513d601f19601f820116820180604052508101906105969190611572565b610a4d565b61065a565b61065973__$c3f55a3e7e4b410bf199cd5e3e47df218f$__637be66f858488036002027ffffffffffffffffffffffffffffffffffffffffffffffffffffffffffff276186000036040518363ffffffff1660e01b81526004016106049291906118eb565b60206040518083038186803b15801561061c57600080fd5b505af4158015610630573d6000803e3d6000fd5b505050506040513d601f19601f820116820180604052508101906106549190611572565b610a4d565b5b905060006107d061271003905060006127106c0100000000000000000000000002828473ffffffffffffffffffffffffffffffffffffffff1602106106a05760006106cd565b818373ffffffffffffffffffffffffffffffffffffffff16026127106c0100000000000000000000000002035b90506106fd886fffffffffffffffffffffffffffffffff16826127106c0100000000000000000000000002610e88565b94505050505b5b5095945050505050565b60008183106107205760029050610745565b61072f82612ee0612710610e88565b83111561073f5760019050610744565b600090505b5b92915050565b612ee081565b60008060008060008989905011156107785761076f8b8a8a8a610f62565b80925081935050505b6000808773ffffffffffffffffffffffffffffffffffffffff166370a082318d6040518263ffffffff1660e01b81526004016107b49190611870565b60206040518083038186803b1580156107cc57600080fd5b505afa1580156107e0573d6000803e3d6000fd5b505050506040513d601f19601f820116820180604052508101906108049190611639565b8773ffffffffffffffffffffffffffffffffffffffff166370a082318e6040518263ffffffff1660e01b815260040161083d9190611870565b60206040518083038186803b15801561085557600080fd5b505afa158015610869573d6000803e3d6000fd5b505050506040513d601f19601f8201168201806040525081019061088d9190611639565b9150915061089b828561070e565b6108a5828561070e565b80965081975050505050975097509750979350505050565b6000808360ff1614156108de578369ffffffffffffffffffff1690506109f3565b60018360ff16141561090b5760106004830260500160ff1685901c8161090057fe5b0660ff1690506109f3565b60028360ff1614156109385760026028830260600160ff1685901c8161092d57fe5b0660ff1690506109f3565b60038360ff1614156109685760026001602884026060010160ff1685901c8161095d57fe5b0660ff1690506109f3565b60048360ff1614156109985760046002602884026060010160ff1685901c8161098d57fe5b0660ff1690506109f3565b60058360ff1614156109c0576004602883026060010160ff1684901c62ffffff1690506109f3565b60068360ff1614156109f257611000601c602884026060010160ff1685901c816109e657fe5b0661ffff1690506109f3565b5b9392505050565b600080600080610a21610a0f896005896108bd565b610a1b8a60068a6108bd565b87611154565b91509150610a31886001886108bd565b87029350610a408483836111b9565b9250505094509492505050565b60008060008360020b12610a64578260020b610a6c565b8260020b6000035b90507ffffffffffffffffffffffffffffffffffffffffffffffffffffffffffff2761860000360020b811115610b0a576040517f08c379a00000000000000000000000000000000000000000000000000000000081526004018080602001828103825260018152602001807f540000000000000000000000000000000000000000000000000000000000000081525060200191505060405180910390fd5b600080600183161415610b2e57700100000000000000000000000000000000610b40565b6ffffcb933bd6fad37aa2d162d1a5940015b70ffffffffffffffffffffffffffffffffff16905060006002831614610b7a5760806ffff97272373d413259a46990580e213a8202901c90505b60006004831614610b9f5760806ffff2e50f5f656932ef12357cf3c7fdcc8202901c90505b60006008831614610bc45760806fffe5caca7e10e4e61c3624eaa0941cd08202901c90505b60006010831614610be95760806fffcb9843d60f6159c9db58835c9266448202901c90505b60006020831614610c0e5760806fff973b41fa98c081472e6896dfb254c08202901c90505b60006040831614610c335760806fff2ea16466c96a3843ec78b326b528618202901c90505b60006080831614610c585760806ffe5dee046a99a2a811c461f1969c30538202901c90505b6000610100831614610c7e5760806ffcbe86c7900a88aedcffc83b479aa3a48202901c90505b6000610200831614610ca45760806ff987a7253ac413176f2b074cf7815e548202901c90505b6000610400831614610cca5760806ff3392b0822b70005940c7a398e4b70f38202901c90505b6000610800831614610cf05760806fe7159475a2c29b7443b29c7fa6e889d98202901c90505b6000611000831614610d165760806fd097f3bdfd2022b8845ad8f792aa58258202901c90505b6000612000831614610d3c5760806fa9f746462d870fdf8a65dc1f90e061e58202901c90505b6000614000831614610d625760806f70d869a156d2a1b890bb3df62baf32f78202901c90505b6000618000831614610d885760806f31be135f97d08fd981231505542fcfa68202901c90505b600062010000831614610daf5760806f09aa508b5b7a84e1c677de54f3e99bc98202901c90505b600062020000831614610dd55760806e5d6af8dedb81196699c329225ee6048202901c90505b600062040000831614610dfa5760806d2216e584f5fa1ea926041bedfe988202901c90505b600062080000831614610e1d5760806b048a170391f7dc42444e8fa28202901c90505b60008460020b1315610e5657807fffffffffffffffffffffffffffffffffffffffffffffffffffffffffffffffff81610e5257fe5b0490505b60006401000000008281610e6657fe5b0614610e73576001610e76565b60005b60ff16602082901c0192505050919050565b600080600080198587098587029250828110838203039150506000811415610ec35760008411610eb757600080fd5b83820492505050610f5b565b808411610ecf57600080fd5b600084868809905082811182039150808303925060008586600003169050808604955080840493506001818260000304019050808302841793506000600287600302189050808702600203810290508087026002038102905080870260020381029050808702600203810290508087026002038102905080870260020381029050808502955050505050505b9392505050565b60008060008673ffffffffffffffffffffffffffffffffffffffff1663d0c93a7c6040518163ffffffff1660e01b815260040160206040518083038186803b158015610fad57600080fd5b505afa158015610fc1573d6000803e3d6000fd5b505050506040513d601f19601f82011682018060405250810190610fe59190611572565b905060008773ffffffffffffffffffffffffffffffffffffffff16633850c7bd6040518163ffffffff1660e01b815260040160e06040518083038186803b15801561102f57600080fd5b505afa158015611043573d6000803e3d6000fd5b505050506040513d601f19601f82011682018060405250810190611067919061159b565b505050505091505060005b8787905081101561114857600088888381811061108b57fe5b905060200201359050600087600083815260200190815260200160002060009054906101000a90046fffffffffffffffffffffffffffffffff1690506000816fffffffffffffffffffffffffffffffff161161111c576040517f08c379a000000000000000000000000000000000000000000000000000000000815260040161111390611914565b60405180910390fd5b60008061112b8484898961032b565b915091508189019850808801975050505050806001019050611072565b50505094509492505050565b6000806000600284860260020b8161116857fe5b059050610fff8560020b14611182578086038187016111a8565b7ffffffffffffffffffffffffffffffffffffffffffffffffffffffffffff27618806000035b809350819450505050935093915050565b60006112026111c784610a4d565b6111d084610a4d565b6111fd6111dc87610a4d565b6111e587610a4d565b896fffffffffffffffffffffffffffffffff1661120b565b61128d565b90509392505050565b60008273ffffffffffffffffffffffffffffffffffffffff168473ffffffffffffffffffffffffffffffffffffffff16111561124c57828480945081955050505b61128461127f836c0100000000000000000000000087870373ffffffffffffffffffffffffffffffffffffffff16610e88565b611348565b90509392505050565b60008273ffffffffffffffffffffffffffffffffffffffff168473ffffffffffffffffffffffffffffffffffffffff1611156112ce57828480945081955050505b8373ffffffffffffffffffffffffffffffffffffffff16611337606060ff16846fffffffffffffffffffffffffffffffff16901b86860373ffffffffffffffffffffffffffffffffffffffff168673ffffffffffffffffffffffffffffffffffffffff16610e88565b8161133e57fe5b0490509392505050565b600081829150816fffffffffffffffffffffffffffffffff161461136b57600080fd5b919050565b60008135905061137f81611a8c565b92915050565b60008083601f84011261139757600080fd5b8235905067ffffffffffffffff8111156113b057600080fd5b6020830191508360208202830111156113c857600080fd5b9250929050565b6000815190506113de81611aa3565b92915050565b6000813590506113f381611aba565b92915050565b60008135905061140881611ad1565b92915050565b60008151905061141d81611ad1565b92915050565b60008135905061143281611ae8565b92915050565b60008135905061144781611aff565b92915050565b60008151905061145c81611b2d565b92915050565b60008151905061147181611b16565b92915050565b60008135905061148681611b44565b92915050565b60008151905061149b81611b44565b92915050565b6000813590506114b081611b5b565b92915050565b6000815190506114c581611b5b565b92915050565b600080600080600080600060c0888a0312156114e657600080fd5b60006114f48a828b016113e4565b97505060206115058a828b01611370565b965050604088013567ffffffffffffffff81111561152257600080fd5b61152e8a828b01611385565b955095505060606115418a828b01611423565b93505060806115528a828b01611370565b92505060a06115638a828b01611370565b91505092959891949750929550565b60006020828403121561158457600080fd5b60006115928482850161140e565b91505092915050565b600080600080600080600060e0888a0312156115b657600080fd5b60006115c48a828b0161144d565b97505060206115d58a828b0161140e565b96505060406115e68a828b01611462565b95505060606115f78a828b01611462565b94505060806116088a828b01611462565b93505060a06116198a828b016114b6565b92505060c061162a8a828b016113cf565b91505092959891949750929550565b60006020828403121561164b57600080fd5b60006116598482850161148c565b91505092915050565b6000806000806080858703121561167857600080fd5b600061168687828801611477565b945050602061169787828801611438565b93505060406116a8878288016113f9565b92505060606116b9878288016113f9565b91505092959194509250565b600080604083850312156116d857600080fd5b60006116e685828601611477565b92505060206116f785828601611477565b9150509250929050565b600080600080600060a0868803121561171957600080fd5b600061172788828901611477565b9550506020611738888289016114a1565b945050604061174988828901611438565b935050606061175a888289016113f9565b925050608061176b888289016114a1565b9150509295509295909350565b6000806040838503121561178b57600080fd5b6000611799858286016114a1565b92505060206117aa85828601611477565b9150509250929050565b6117bd816119a9565b82525050565b6117cc81611a64565b82525050565b6117db816119ec565b82525050565b60006117ee601a83611998565b91507f4e6f6e206578697374696e67207573657220706f736974696f6e0000000000006000830152602082019050919050565b600061182e600b83611998565b91507f4e6f74206865616c7468790000000000000000000000000000000000000000006000830152602082019050919050565b61186a81611a4d565b82525050565b600060208201905061188560008301846117b4565b92915050565b60006020820190506118a060008301846117c3565b92915050565b60006080820190506118bb60008301876117c3565b6118c860208301866117c3565b6118d56040830185611861565b6118e26060830184611861565b95945050505050565b600060408201905061190060008301856117d2565b61190d60208301846117d2565b9392505050565b6000602082019050818103600083015261192d816117e1565b9050919050565b6000602082019050818103600083015261194d81611821565b9050919050565b60006020820190506119696000830184611861565b92915050565b60006040820190506119846000830185611861565b6119916020830184611861565b9392505050565b600082825260208201905092915050565b60006119b482611a2d565b9050919050565b60008115159050919050565b60006119d2826119a9565b9050919050565b60008190506119e782611a78565b919050565b60008160020b9050919050565b6000819050919050565b60006fffffffffffffffffffffffffffffffff82169050919050565b600061ffff82169050919050565b600073ffffffffffffffffffffffffffffffffffffffff82169050919050565b6000819050919050565b600060ff82169050919050565b6000611a6f826119d9565b9050919050565bfe5b60038110611a8957611a88611a76565b5b50565b611a95816119a9565b8114611aa057600080fd5b50565b611aac816119bb565b8114611ab757600080fd5b50565b611ac3816119c7565b8114611ace57600080fd5b50565b611ada816119ec565b8114611ae557600080fd5b50565b611af1816119f9565b8114611afc57600080fd5b50565b611b0881611a03565b8114611b1357600080fd5b50565b611b1f81611a1f565b8114611b2a57600080fd5b50565b611b3681611a2d565b8114611b4157600080fd5b50565b611b4d81611a4d565b8114611b5857600080fd5b50565b611b6481611a57565b8114611b6f57600080fd5b5056fea2646970667358221220b1cb2afc88ec496db36a3649cdddfba52b2ca3e0ecd2acc0c12384270f989e7a64736f6c63430007060033",
  "linkReferences": {
    "contracts/libraries/PanopticMath.sol": {
      "PanopticMath": [
        {
          "length": 20,
          "start": 1296
        },
        {
          "length": 20,
          "start": 1483
        }
      ]
    }
  },
  "deployedLinkReferences": {
    "contracts/libraries/PanopticMath.sol": {
      "PanopticMath": [
        {
          "length": 20,
          "start": 1258
        },
        {
          "length": 20,
          "start": 1445
        }
      ]
    }
  }
}